:400000000080002011000000130200001302000008B5054B1A6803F53F5302331A6000F0BDFB00F0FFF800BFFA46004010B5054C237833B9044B13B10448AFF3008001230D
:40004000237010BD9881FF1F00000000641F0000084B10B51BB108480849AFF300800848036803B910BD074B002BFBD0BDE81040184700BF00000000641F00009C81FF1F62
:400080000881FF1F000000000047000008B501F083FE1A4C10B9402323701EE0237813F0C00F08D14023237040F2EE2000F034FC802323700BE0257805F0C005802D0BD163
:4000C0004023237040F2EE2000F026FC257042F61100FFF7D9FF00E0237840F2EE2000F01BFC62B6002001F07BFE01F0B1FE012001F05AFE024800F037FBFEE7FA460040CD
:40010000001C4E0E08B562B60020022100F06EFE054B01221A7000F0A1FE0028FBD0BDE8084000F097BF00BFB481FF1F2DE9F74307460E4691460AB90DF1060903EB830303
:400140005C0000256434A9F80050A4B2C6F3871800F0F6FF28B90120013C00F0DDFBA4B220E0A801B8F1000F0FD03844402100F0A9FFB9F80030013508F1FF384033EDB277
:400180005FFA88F8A9F800300CE006F03F063844314600F097FFB9F8003040461E44A9F8006002E0002CD3D1102003B0BDE8F0832DE9F7430746884615460AB90DF10605EC
:4001C00000232B800A24102600F0B0FF28B90120013C00F0A1FBA4B215E000F091FF8146002818BF022428884946384400F0B2FF288808F1FF33484480B2002818BF002692
:400200009842288001DA002CDED1304603B0BDE8F08308B501F062FE03680C2B00D1FEE7FEE7000008B51148114AC8B1A2F1100132C9234604391E1BAE4204D051F8046F12
:4002400043F8046BF7E71D4652F8041C5C1B8C4203D0002443F8044BF8E701381032E4E701F042FEFFF712FFFEE700BF010000002C23000008B5114A114B1A60114A13684E
:4002800043F4007313600023032B98BF0E4A4FEA830094BF52F823100C490D4A0133302B1150F1D10B4B19780B4B19700B4B1A6000F018F80A4B00221A6008BD0004FA05E8
:4002C0000CED00E014ED00E000000000130200000080FF1FBC7600400481FF1F08ED00E00081FF1F70B572B6574A0024137843F004031370554A062303FB04230021186820
:400300009A88013401F021FE082CF3D1002108464F4B53F82040483324F0FF05E4B203EB4102214403EB41030132033302329A4205D012F8034C12F8026C2E55F6E7013009
:400340001228E5D1434A444D1378192643F002031370137C002443F0020313742B78A2F5863243F040032B70413A137843F0100313703A4B02F62E621868596803C21989F1
:4003800037481180194651F80A2F02604A68426053F8120F334A59681B8903C21380A2F60662137843F0080313702F4B61221A700622A3F5A0631A705222A3F580731A7047
:4003C0002A4B2B4A1B78DBB213702A4B4FF4E1621A8041F2512223F8022C274B4FF4F0701B7803F0010343EA440401F041FD013E04F0030426D0032CEFD1204A4FF48073EA
:4004000013801F4907231370482000230B708870137053711B4B02221A70812283F8FF27194B1A4A1B781A4CDBB203F007011B0911705370174B44221A7095E80F0007C41D
:40044000238070BDFEE700BFE8460040681F0000981F000003500140A04300400E2100001251004020510040004800400F010049A14600402242004025420040044000404B
:400480000640004001400040CF0100496E580040B0430040765800402DE9F04FADF54B7D0390FFF72FFE002446AD0A2340F20E210DF116022846FFF77BFE064601F096FCF9
:4004C000039B4042984204D3A34B80221A7000F01BFA002EE8D101F07BFC304601F080FC01F0B6FC2B78413B382B00F22C8101A252F823F0D90500003906000047070000AB
:4005000047070000F70500003907000047070000E505000047070000470700004707000043070000470700003907000047070000430700003907000047070000EF0600001C
:400540004307000047070000F506000047070000470700004707000047070000470700004707000047070000470700004707000047070000FD060000010700004707000083
:4005800047070000A9040000470700001B0600004707000047070000470700004707000047070000470700004707000047070000F9060000470700003907000027070000A6
:4005C000190700004707000013070000470700004307000043070000AB786C785B0043EA4424AEE0AC786B78640244EA4343EC7843EA4404A5E0584B80221A700D2300226C
:400600002B70284601211346FFF790FD00F098FD0028FBD000F078F946E76978AB78002243EA012113B28B4202F1010202DA185DE854F7E728468AE0AB786F7843EA072708
:40064000EB78462B47D147AEB046C4F30723E5B20193C5F580739F4294BF00230123C4F3074924F0FF0A02934FF0000BB7F5807F05D00AEB0B22531E02F1FF0102E0002D57
:40068000F7D111E013F801EF06AEB01A8B4200F803E0F7D1C5F58072BA4206EB0500414638BF3A4601F046FC32464846019900F021F90BF1010B029A5FFA8BF3C5F58075F5
:4006C0009342A8444FF0010B4FF00005CED900F03FF90D2300E03F230D2B8DF8183104D19DF81B31462B08BFE41946A82EE01B4808212CE01A480DE0532325E0592323E09B
:4007000059232B70002201236B70AA70284603211EE0144802211AE0442300222B706A702846022114E087232B7095236B701E23AB70284603210AE000222A7028460121DF
:4007400006E00D2300E03F2328462B70012100221346FFF7EBFCA7E6FA4600402C210000332100003521000010B5044600F018F810B1002000F0C5F8074A137803F0C0036B
:40078000402B03D113702046FFF786FE80231370BDE8104000F0B8B8FA4600407047000038B500F047F900F0E1F908B1042438E000F016FA072804460FD11B4B1A7890071D
:4007C00003D4012000F0BCF8F7E71A78910704D51B789B0814BF0724002400F0E7F904BB00F028F900F0C2F90028DFD1012000F0A3F9072805D04FF0FF3410E02B789B07A9
:40080000F9D40A48022100F027F90228064DF5D12B789A0703D4012000F092F8F8E700F0C5F9204638BD00BF22470040C581FF1F4128F8B505460E4617461C460AD8411F03
:400840003A298CBF002101213F2804D8B6F5807F29D805E00121812E28BF0121102C22D10FB301BB00F082F9F8B92346284631463A4600F00BF90728044611D11B4B1A78FC
:400880001F4612F0020F03D1012000F059F8F5E71A78900702D51B789B0808D04FF0FF3400F084F91FE001241DE004241BE0104B28461A7831465B7800F01EF90728044658
:4008C000EED13A78094B910703D4012000F038F8F7E71A789207E1D51B789B0814BF4FF0FF340024DCE72046F8BD00BF22470040C581FF1F3F288CBF10234FF48073FFF76A
:4009000097BF01BE70470000024A137843F0010313707047F646004010B50446B4F5004F064B05D9186801F0A3FAA4F50044F5E758686043BDE8104001F09ABA0C81FF1FE2
:40094000024B1B7A584301F093BA00BF0C81FF1F08B501F095FA00BF00BF00BF00BF00BF00BF00BF00BF00BF00BF00BF00BF00BF00BF00BF00BF064A13889BB243F00403B3
:4009800013801388BFF36F8FBDE8084001F07CBA00480040054A00F01F00126800F1100352F8230042F82310704700BF08ED00E000F01F0000F16040490100F56440C9B2BE
:4009C00001707047134B144A1B78DBB20360127843EA0223114A0360127843EA0243104A0360127843EA026303600E4B0E4A1B78DBB24360127843EA02230C4A43601278EB
:400A000043EA02430A4A4360127843EA02634360704700BF0301004904010049EC460040020100490101004900010049050100490601004908B501F023FA064A137843F0B2
:400A400008031370137C43F008031374BDE8084001F01ABAA043004070B50E464B1E451EC418A5420CD0074B1B78DB0703D40120FFF766FFF7E7044B1B7805F8013FF0E7ED
:400A8000304670BD224700402047004070B5184D2C78A60727D5174CB6262670D5262670022626702D78AD071FD416462070B51AADB29D4203D216F8015B2570F7E7B3F5A9
:400AC000807F01D0072070BD3F28FBD800F5103001EB0021490100235A5C0133D2B2202B2270F9D1EEE7042070BD092070BD00BF224700402047004070B50D4D2C78A60779
:400B000012D50C4CB6262670D8262670052626702D78AD070AD42070080AC9B22070217022702370072070BD042070BD092070BD22470040204700400A4A137899070CD56A
:400B4000094BB6211970E12119700E2119701278920704D4187007207047042070470920704700BF224700402047004038B501F087F90C4A147874B901250B4915700B6874
:400B80002B400AD00B6823F001030B6000BF00BF00BF556002E0042400E01C4601F074F9204638BDB881FF1F0400084010B501F067F9094B00215A681970012A08D1074C34
:400BC000226842F00102226000BF00BF00BF5960BDE8104001F058B9B881FF1F04000840074B1B789B0741BF064BB6221A70E02241BF1A700D2207201A7058BF042070478C
:400C00002247004020470040F8B501F039F9404A01261378022543F001031370137C3D4C43F0010313743C4B02F5E3521E700B3203F8945C1378074603F07F031370002048
:400C4000FFF77EFE2378354A03F0F90323701378304603F0DF031370237833432370FFF76FFE2820FFF76CFE2D4B28461A7802F07F021A701A7802F0BF021A7023782B4311
:400C80002370FFF75DFE2378384643F004032370244B00241C705C7001F0F6F817200721FFF786FE20491720FFF774FE18200721FFF77EFE1D491820FFF76CFE1520072192
:400CC000FFF776FE1A491520FFF764FE20460721FFF76EFE20461749FFF75CFE30460721FFF766FE30461449FFF754FE28460721FFF75EFE28461149FFF74CFE0C2007213D
:400D0000FFF756FEBDE8F8400C200D49FFF742BEA5430040944300409D60004012600040F851004084600040631600008D14000061160000CD150000F91500002916000079
:400D40006716000008B51D4B1D4A1870002313701C4A13701C4A13701C4A13701C4A13701C4A13701C4A13701C4B4FF400021A604FF080721A604FF400121A6001221A6089
:400D800002221A6004221A60154B29B1012903D11A7842F0010202E01A7802F0FE021A70104B03221A70802203F8202C012001F05FF80D4B04221A7008BD00BFD981FF1FA6
:400DC000DC81FF1FF481FF1FF781FF1FEC81FF1FF681FF1FF981FF1FD881FF1F00E100E009600040286000401260004070B5074C064623780D461BB9FFF706FF0123237004
:400E000030462946BDE87040FFF79CBFC081FF1F0A4A002313700A4A13700A4A13700A4A13700A4A13700A4A13700A4A13700A4B03221A70802203F8202C7047DC81FF1FA5
:400E4000F481FF1FF781FF1FEC81FF1FF681FF1FF981FF1FD881FF1F28600040014B1878704700BFF781FF1F024A0C2303FB002040787047FA81FF1F431E072B9FBF084B85
:400E8000074A00011B189FBF805C5B7800F00F0043EA00209ABF023880B20020704700BFFC5F0040431E072BF0B531D8194B0C2505FB0035EC88184EA4B2C4F50074A24212
:400EC0004FF00C0404FB003488BFEA88E57884BFC2F5007292B2104C45EA12250701BD553C44D5B2657041B90C2202FB0030002343704379DBB2A370F0BD0E46751AADB27C
:400F00009542F1D216F801EB044D05F807E0F5E7F0BD00BFFA81FF1FFC5F004078600040431E072B0AD8064A0C2303FB002300225A705A79034BD2B200011A54704700BFC9
:400F4000FA81FF1FFE5F004070B5064614460D46C9B1431E072B18D8FFF78EFF844203D93046FFF789FF04462A46531B9BB2A34205D2074B31015B5C02F8013BF5E7304613
:400F8000FFF7CEFF02E00C4600E00024204670BD7860004030B500210446FF20074B0C255A5C074B05FB023308339B78A34201D1084630BD09B90121F0E730BDCC81FF1F09
:400FC000FA81FF1F10B51E4C2079FFF7E3FF237813F0800F63780DD0212B2ED1BDE81040184B07221A80184AC0EBC0001044586000F0A2BADBB2202B0ED0222B1DD1A3783C
:40100000124A22F81030124A135C43F002031354BDE8104000F070B90A4A07230A491380C0EBC0030B445360094A135C43F001031354BDE8104000F0A5BA002010BD00BF5E
:4010400000600040E081FF1F1C81FF1FD481FF1FC881FF1F10B5164A00231370154A164C137053702078C0B2431E072B01D8FFF757FF6078C0B2431E072B01D8FFF750FF2D
:401080000E4A13788BB123787BB10D4B197861B11278082A09D8084A1278082A05D81878082894BF0020012010BD012010BD00BFC181FF1FC881FF1FCE81FF1FCA81FF1F5C
:4010C000CC81FF1F0A4610B504460A4B0A491B78C85C0A49C0B20C2303FB0013198989B28A4288BF1A892146BDE8104088BF92B2FFF7D8BEC181FF1FCA81FF1FFA81FF1F5A
:40110000074B084A1B78D05C074AC0B20C2303FB00235B78012B01D1FFF7AEBE00207047C181FF1FCE81FF1FFA81FF1F024B034A1B78D05CFFF798BEC181FF1FCE81FF1F57
:40114000024B034A1B78D05CFFF78EBEC181FF1FCA81FF1F03460A46034904480978405C1946FFF7F1BE00BFC181FF1FCE81FF1FC37890F9020003F0030300280FDA032B2F
:4011800015BF0C480C4802F00103C2F3800319BFC15442F00102C15442F0040207E0032B1FBF0648C2F34003C15442F002021046704700BFCA81FF1FCC81FF1FCE81FF1F85
:4011C00030B51A4A1A490878138803449BB213800023184AD8B21488A4B284B1082B0DD05068154C0078C0B2E05450680133013050601088013880B21080EAE718460B7872
:401200000E4C082B0E4A00D040B10E4D2B7883F080032B700F232370022301E0022323701370094B1870087030BD00BFDA81FF1FD881FF1FE081FF1F00600040F581FF1FD0
:40124000DC81FF1F6882FF1FF881FF1F074B02221A70074B80221A70064B0F221A70064A00231370054A012013707047DC81FF1F6882FF1FF581FF1FD881FF1FF881FF1F05
:4012800010B5164B16491B780A8803F00F03023BDBB21A4492B20A800020124A118889B281B17BB110495468095C013BC9B221705168DBB20131516011880130013989B2B1
:4012C0001180EAE7094A1370094A137883F080031370084B0B221A7010BD00BF29600040DA81FF1FE081FF1F00600040F881FF1F6882FF1FF581FF1F064A06231370064AE9
:4013000001201370054B80221A70054B00221A70704700BFDC81FF1FF581FF1F6882FF1FF881FF1F054B9A683AB19A68044910709A680988518000229A607047E081FF1FAB
:40134000DA81FF1F08B5124B1A78D2B21A701B78DBB21A0602D50F4A137008BD0220FFF7E1FF0D4B1B7803F06003202B05D0402B06D043B900F0B8FB04E000F089FD01E00E
:4013800000F0ECFC10B9034B03221A7008BD00BF28600040F581FF1F0060004008B5084A084B0120197813880B449BB21380064B00221A70FFF7B6FF044B03221A7008BDC6
:4013C000DA81FF1FD881FF1FDC81FF1FF581FF1F08B50C4B1B78DBB2042B07D0062B09D0022B0DD1BDE80840FFF7D8BFBDE80840FFF746BF0320FFF795FF034B03221A7093
:4014000008BD00BFDC81FF1FF581FF1F08B5054B002201201A70FFF785FF034B03221A7008BD00BFDC81FF1FF581FF1F08B50A4B1A7832B11A78094942F080020A7000227A
:401440001A70074B002201201A70FFF76BFF054B03221A7008BD00BFF681FF1F08600040DC81FF1FF581FF1F074B1B78DBB2042B05D0062B05D0022B05D1FFF7A1BEFFF7CA
:40148000C5BFFFF7D3BF7047DC81FF1F10B51D4C2378DBB2DA0634D518060AD503F00F03012B2ED1FFF74EFF174B1B78190609D510BD5A0602D5FFF7D7FF03E09B0620D504
:4014C000FFF786FF23781B061BD4104B104A1B78127813430F4A13701278934211D10A4A084913782078DBB200065FBF1378DBB20B700B78127858BF03F00F039342EED1B8
:4015000010BD10BD28600040F581FF1F6882FF1FF881FF1F29600040054A00231380054A916819B191680B7092685380704700BFDA81FF1FE081FF1F10B50E4C23889BB270
:4015400013B9FFF783FE13E00B4B02221A700B4B00221A70FFF7E0FF094AD1799379228843EA012392B29A4288BF2380FFF728FE012010BDE081FF1FDC81FF1F6882FF1FA0
:401580000060004008B50C4B04221A700B4B80221A70FFF7C1FF0A4A0120D179937943EA012308490A8892B29A4288BF0B80064B0B221A7008BD00BFDC81FF1F6882FF1F8F
:4015C00000600040E081FF1FF581FF1F084B01221A700F3B9B7C074B1A7B02F00302012A1EBFDA7B82F08002DA7301225A7370470B600040FA81FF1F094B02221A700F3B24
:4016000093F82230074B1A7E02F00302012A1EBFDA7E82F08002DA7601225A76704700BF0B600040FA81FF1F0B4B04221A700F3B93F83230094B93F8242002F00302012A19
:401640001EBF93F8272082F0800283F82720012283F82520704700BF0B600040FA81FF1F7047FFF7D5BB00F08FBB000070B50446194B88B003AA03F1100615461868596893
:40168000083303C5B3422A46F7D11B782B7004B32223237001AD032328466370FFF792F920460022AB5C08A901EB131108AC03F00F0311F8141C234413F8143C013281707F
:4016C000082A4FF00001C1700371417100F10400E8D108B070BD00BF37210000F0B5012216490C25164B05FB0216140123441D7014487779204437B13479240601D5857063
:4017000003E0082400E0802484700C2000FB0211C8880132C0B29871C888092AC0F30720D871C888C0B21871C988C1F307215971D6D1054BFF221A70F0BD00BFFA81FF1F5B
:4017400070600040FC5F00400A600040064B074A1B7802EBC30253681A7C824286BF03EBC003586900207047D981FF1F84210000F8B5334B1A78002A61D018780138C0B21A
:40178000FFF7E4FF2F4AC3681478067AE4B203EBC606B34253D01A78A2424ED12A4A5978125D914249D19A780C2502F07F077D43264A4FF0000E5119D87881F803E093F829
:4017C00002C000F0030081F804C093F803C002F805C09D880D8193F90250754507DA01280CBF07200D2048710120487006E001280CBF05200920487181F801E014493D010E
:401800002944012088700C2000FB07221089C0F3072008701089C0B24870D0880D49C0B229448871D088C0F30720C871D088C0B20871D288C2F307224A710833A9E7F8BD7D
:40184000F781FF1FEC81FF1F6682FF1FFA81FF1FFC5F00407060004008B5064B18780138C0B2FFF773FF20B143681B7900EBC300406908BDF781FF1F2DE9F04700210C24EC
:401880004C43504D013100232A1909292B559370D3701381937253705371F0D128B14A494A4A0B7013704B705370494B1A78002A00F08580187801270138C0B2FFF746FF2C
:4018C00080464368067ADB79F60013F0400F414B1A7814BF42F0010202F0FE021A700022D8F80C405FFA87FA04EB06094C453CD0A07800F07F039F4235D10C2303FB07530E
:401900001989B4F804E089B2714538BFA3F808E02D492378CB5C6178994224D10C2179436B181871E078685494F90200E178002801F0030106DA01290CBF07210D21597126
:40194000012105E001290CBF05210921597100215970A37903F0F703022B04D120465146FFF706FC02460834C0E70137092FB7D1D8F80C300A369A1C1E440832B2420AD0D8
:4019800012F8083C0C2003F07F0300FB035312F80A1C9972F1E7FFF75FFF0F4B0122186000230C2101FB0251CB80098901320B44092A9BB2F5D1BDE8F047FFF78FBEBDE883
:4019C000F08700BFFA81FF1F6682FF1FDD81FF1FF781FF1FF981FF1FF081FF1F114B1B7903F07F035A1E072A19D80F490C2202FB031291781B0141F0010191700021D17087
:401A0000517841F002015170127912F0800F074A1A4414BF8D2389239370FFF76DBC0020704700BF00600040FA81FF1FFC5F004030B5184B1A7902F07F02531E072B26D873
:401A4000154B0C2000FB02339978144C01F0FE0199700021D970120110497F25155511445A7802F0FD025A701A795B78120605D5012B01D1887006E00D2303E0012B0CBF3C
:401A8000082309238B70BDE83040FFF735BC002030BD00BF00600040FA81FF1FFC5F004038B50D4B0D4D2C791878E4B20138C0B2FFF74CFE43681B79A34201D2022C09D8DD
:401AC000074A0849135D0120DBB20B55AB78DBB2135538BD002038BDF781FF1F006000406682FF1FDD81FF1F38B58A4A8A4C13780021DBB221801806517840F18D800A2923
:401B000000F20681DFE811F05D00040104010401040104010B0004017E0004018200D2787C4B012A09D17D4B1A787D4B03EBC2035B685B686360122310E0DA78022A12D11F
:401B40009878FFF703FE002800F0E280436863606368DA7863689B7843EA02232380BDE83840FFF7E9BCDB78032B26D16D4B0021684AC8B29578854208D891786A4AEE29C9
:401B800008BF1346634A917881B106E0187801310028F2D01A781344EAE764499278097C914203D16248FFF761FD614B1A78002A00F0AE801A78228018E0BDE8384000F031
:401BC00067B913F0030313D0022B40F0A1802380504B0C211B7903F07F02564B01FB02339A78554BD2B21A7000225A706360B6E702222280514A11784F4AC9B211705370C8
:401C00006260ACE7012323804D4BEFE70123238013794C4A1344E9E701390A2978D8DFE801F037774F77067777770A7720009378454ADBB25AE0937803F0FF0453B9404B1C
:401C40001A78944260D01C70404B01201870FFF713FE59E0601EC0B2FFF778FD0028EED156E0FFF71DFF002852D02A4A384913791279DBB2D2B20A70364A3249D25CCB5C11
:401C80009A4241D0314B01221A70FFF771FD3BE003F00303012B2BD009D3022B38D11D4B9B78002B34D1BDE83840FFF7C1BE194B9B78012B2CD1214A137803F0FD0315E0A2
:401CC00003F00303012B13D008D3022B20D1114B9B78EBB9BDE83840FFF780BE0D4B9B78012B15D1154A137843F0020313700BE0084B1A79012A0BD898781B791649DBB2EE
:401D0000CA5C22EA0002CA54BDE83840FFF7F4BA002038BD00600040E081FF1FD981FF1F84210000E821000070210000E22200006B82FF1FFA81FF1FC281FF1FF981FF1F04
:401D4000F781FF1F6682FF1FF681FF1FF481FF1FEC81FF1FDD81FF1F6982FF1F074B1A78120609D55B78012B06D1054B054A5A6012781A80FFF7E0BB00207047006000405A
:401D8000E081FF1F48210000024B1878C0F38010704700BF8F450040024B1878C0F38000704700BF21510040044A4000137800F0020003F0FD03034313707047205100402A
:401DC000024A137843F080031370704779640040024A137803F07F031370704779640040014B1860704700BF08640040024B1B78024B1868704700BF0864004048640040BB
:401E0000034B1B781B0702D5024B1B68F8E770476B640040486400400A4A08B54FF0FF33136042F8203C00F02BF8074A137843F01003137000F028F8FFF7E2FF034B0022CD
:401E40001A7008BD286400409B6400408B64004010B5054C23781BB9FFF7DEFF01232370BDE81040FFF7ACBFC481FF1F000000000230800803D000BF01380046FCD17047C2
:401E8000EFF3108072B6704780F31088704700BF0F4A137803F00303012B0BD0022B0CD113790C2103F07F020A4B01FB023308339B7800E01379DBB200E00023064A12689B
:401EC000D35C022B01D1FFF77DB80020704700BF00600040FA81FF1FF081FF1F014B1868704700BF9481FF1F0E4B70B51E460E4C0025E41AA410A54204D056F82530984766
:401F00000135F8E700F0F8F9084B094C1E46E41AA4100025A54204D056F8253098470135F8E770BD0423000004230000042300000C23000010B5431E0A44914204D011F881
:401F4000014B03F8014FF8E710BD03460244934202D003F8011BFAE770470000002400000E00000000000000005100401000305100404000C05100401000000001400010B3
:401F800000140140000800400140000A004C01400002005001402000014500400152004001640040280801400C090140320A0140110B014002170140021901400340014060
:401FC0000341014003420140034301400447014004480140024C014002500140015101407E027C408B0D401549FF4AFF4BFF4F0150185A045D095F01604062406440654016
:40200000668068806A806C806E80C051C9FFCAFFCBFFCD83CE03CF01D018D280DA04DB04DD99DF01E040E240E440E540E680E880EA80EC80EE804180478048024F807002B4
:4020400073809F80A180A340A402D018D218405149FF4AFF4BFF4D834E034F0150185A045D095F016040624064406540668068806A806C806E8092019E01B001BE01C015D5
:40208000C5ECC602C807C9FFCAFFCBFFCD83CE03CF01D018D401D804DA04DB04DD99DF01E040E240E440E540E680E880EA80EC80EE800C020D801E804180478048024D04E7
:4020C0004F81558057405D045E805F01C290D018D218D6D0EA02EE0AEA02EE0A33813640CC709F01A640A7809F01A640A7809F01A640A78008080B040F40C20EAE40AF81AA
:40210000EA40EE50AC08AF4401010D01002A4000000000000000C000000B0B0000000000040000060200000000000000415652424F4F543130313030313233343536373881
:4021400039414243444546002800000000010400010000000000000000014359555342000000303030303100000000000000000012034D005300460054003100300030000B
:4021800001000000010000008C21000001000000E2220000000000000000000001000000A4210000010000009F22000003000000CE210000000000000000000000000000F1
:4021C0000000000000000000CC210000020A00008103080002000100820240000A000100030240000A000203040309042C0343007900700072006500730073002000530095
:4022000065006D00690063006F006E0064007500630074006F007200100355005300420055004100520054003803430044004300200043006F006D006D0075006E0069005C
:4022400063006100740069006F006E00200049006E007400650072006600610063006500260343004400430020004400610074006100200049006E0074006500720066001A
:40228000610063006500180343005900380043004B00490054002D003000350039000009024300020105800A0904000001020201030524001001042402020524060001057F
:4022C000240100010705810308000A09040100020A00000407058202400000070503024000001201000202000008B40432F201000502800143000000F8B500BFF8BC08BC2C
:402300009E4670475100000075020000F8B500BFF8BC08BC9E4670472D000000302300000881FF1F90000000F800000000000000000000000000E02EC05D000018000000C9
:4023400000366E0100C2010000000800C20100000008A12000000000020000000000000000000000000000000000000000000000000000000000000000000000F422000049
:402380000000000000000000000000000000000000000000000000000000000000000000000000000000000000000000000000000000000000000000000000003481FF1F4A
:4023C00000000000000000000000000000000000000000000000000000000000000000000000000000000000000000000000000000000000000000000000000000000000DD
:40240000000000000000000000000000000000000000000000000000000000000000000000000000000000000000000000000000000000000000000000000000000000009C
:40244000000000000000000000000000000000000000000000000000000000000000000000000000000000000000000000000000000000000000000000000000000000005C
:40248000000000000000000000000000000000000000000000000000000000000000000000000000000000000000000000000000000000000000000000000000000000001C
:020000040003F7
:40FFC00000000000000000000000000000000000000000000100010000000000000000000000000000000000000000000000000000000000000000000000000000000000FF
:0200000480007A
:4000000000000000000000000000000000000000000000000000000000000000000000000000000000000000000000000000000000000000000000000000000000000000C0
:400040000000000000000000000000000000000000000000000000000000000000000000000000000000000000000000000000000000000000000000000000000000000080
:400080000000000000000000000000000000000000000000000000000000000000000000000000000000000000000000000000000000000000000000000000000000000040
:4000C0000000000000000000000000000000000000000000000000000000000000000000000000000000000000000000000000000000000000000000000000000000000000
:0200000490006A
:0400000000004005B7
:0200000490105A
:04000000BC90ACAF55
:0200000490303A
:020000008E026E
:0200000490402A
:40000000FFFFFFFFFFFFFFFFFF0F000000000000000000000000000000000000000000000000000000000000000000000000000000000000000000000000000000000000BA
:400040000000000000000000000000000000000000000000000000000000000000000000000000000000000000000000000000000000000000000000000000000000000080
:400080000000000000000000000000000000000000000000000000000000000000000000000000000000000000000000000000000000000000000000000000000000000040
:4000C0000000000000000000000000000000000000000000000000000000000000000000000000000000000000000000000000000000000000000000000000000000000000
:0200000490501A
:0C00000000012E16106900012E229E6BDC
:00000001FF