:400000000080002011000000130200001302000008B5054B1A6803F53F5302331A6000F0BDFB00F0FFF800BFFA46004010B5054C237833B9044B13B10448AFF3008001230D
:40004000237010BD9881FF1F00000000641F0000084B10B51BB108480849AFF300800848036803B910BD074B002BFBD0BDE81040184700BF00000000641F00009C81FF1F62
:400080000881FF1F000000000047000008B501F083FE1A4C10B9402323701EE0237813F0C00F08D14023237040F2EE2000F034FC802323700BE0257805F0C005802D0BD163
:4000C0004023237040F2EE2000F026FC257042F61100FFF7D9FF00E0237840F2EE2000F01BFC62B6002001F07BFE01F0B1FE012001F05AFE024800F037FBFEE7FA460040CD
:40010000001C4E0E08B562B60020022100F06EFE054B01221A7000F0A1FE0028FBD0BDE8084000F097BF00BFB481FF1F2DE9F74307460E4691460AB90DF1060903EB830303
:400140005C0000256434A9F80050A4B2C6F3871800F0F6FF28B90120013C00F0DDFBA4B220E0A801B8F1000F0FD03844402100F0A9FFB9F80030013508F1FF384033EDB277
:400180005FFA88F8A9F800300CE006F03F063844314600F097FFB9F8003040461E44A9F8006002E0002CD3D1102003B0BDE8F0832DE9F7430746884615460AB90DF10605EC
:4001C00000232B800A24102600F0B0FF28B90120013C00F0A1FBA4B215E000F091FF8146002818BF022428884946384400F0B2FF288808F1FF33484480B2002818BF002692
:400200009842288001DA002CDED1304603B0BDE8F08308B501F062FE03680C2B00D1FEE7FEE7000008B51148114AC8B1A2F1100132C9234604391E1BAE4204D051F8046F12
:4002400043F8046BF7E71D4652F8041C5C1B8C4203D0002443F8044BF8E701381032E4E701F042FEFFF712FFFEE700BF010000002C23000008B5114A114B1A60114A13684E
:4002800043F4007313600023032B98BF0E4A4FEA830094BF52F823100C490D4A0133302B1150F1D10B4B19780B4B19700B4B1A6000F018F80A4B00221A6008BD0004FA05E8
:4002C0000CED00E014ED00E000000000130200000080FF1FBC7600400481FF1F08ED00E00081FF1F70B572B6574A0024137843F004031370554A062303FB04230021186820
:400300009A88013401F021FE082CF3D1002108464F4B53F82040483324F0FF05E4B203EB4102214403EB41030132033302329A4205D012F8034C12F8026C2E55F6E7013009
:400340001228E5D1434A444D1378192643F002031370137C002443F0020313742B78A2F5863243F040032B70413A137843F0100313703A4B02F62E621868596803C21989F1
:4003800037481180194651F80A2F02604A68426053F8120F334A59681B8903C21380A2F60662137843F0080313702F4B61221A700622A3F5A0631A705222A3F580731A7047
:4003C0002A4B2B4A1B78DBB213702A4B4FF4E1621A8041F2512223F8022C274B4FF4F0701B7803F0010343EA440401F041FD013E04F0030426D0032CEFD1204A4FF48073EA
:4004000013801F4907231370482000230B708870137053711B4B02221A70812283F8FF27194B1A4A1B781A4CDBB203F007011B0911705370174B44221A7095E80F0007C41D
:40044000238070BDFEE700BFE8460040681F0000981F000003500140A04300400E2100001251004020510040004800400F010049A14600402242004025420040044000404B
:400480000640004001400040CF0100496E580040B0430040765800402DE9F04FADF54B7D0390FFF72FFE002446AD0A2340F20E210DF116022846FFF77BFE064601F096FCF9
:4004C000039B4042984204D3A34B80221A7000F01BFA002EE8D101F07BFC304601F080FC01F0B6FC2B78413B382B00F22C8101A252F823F0D90500003906000047070000AB
:4005000047070000F70500003907000047070000E505000047070000470700004707000043070000470700003907000047070000430700003907000047070000EF0600001C
:400540004307000047070000F506000047070000470700004707000047070000470700004707000047070000470700004707000047070000FD060000010700004707000083
:4005800047070000A9040000470700001B0600004707000047070000470700004707000047070000470700004707000047070000F9060000470700003907000027070000A6
:4005C000190700004707000013070000470700004307000043070000AB786C785B0043EA4424AEE0AC786B78640244EA4343EC7843EA4404A5E0584B80221A700D2300226C
:400600002B70284601211346FFF790FD00F098FD0028FBD000F078F946E76978AB78002243EA012113B28B4202F1010202DA185DE854F7E728468AE0AB786F7843EA072708
:40064000EB78462B47D147AEB046C4F30723E5B20193C5F580739F4294BF00230123C4F3074924F0FF0A02934FF0000BB7F5807F05D00AEB0B22531E02F1FF0102E0002D57
:40068000F7D111E013F801EF06AEB01A8B4200F803E0F7D1C5F58072BA4206EB0500414638BF3A4601F046FC32464846019900F021F90BF1010B029A5FFA8BF3C5F58075F5
:4006C0009342A8444FF0010B4FF00005CED900F03FF90D2300E03F230D2B8DF8183104D19DF81B31462B08BFE41946A82EE01B4808212CE01A480DE0532325E0592323E09B
:4007000059232B70002201236B70AA70284603211EE0144802211AE0442300222B706A702846022114E087232B7095236B701E23AB70284603210AE000222A7028460121DF
:4007400006E00D2300E03F2328462B70012100221346FFF7EBFCA7E6FA4600402C210000332100003521000010B5044600F018F810B1002000F0C5F8074A137803F0C0036B
:40078000402B03D113702046FFF786FE80231370BDE8104000F0B8B8FA4600407047000038B500F047F900F0E1F908B1042438E000F016FA072804460FD11B4B1A7890071D
:4007C00003D4012000F0BCF8F7E71A78910704D51B789B0814BF0724002400F0E7F904BB00F028F900F0C2F90028DFD1012000F0A3F9072805D04FF0FF3410E02B789B07A9
:40080000F9D40A48022100F027F90228064DF5D12B789A0703D4012000F092F8F8E700F0C5F9204638BD00BF22470040C581FF1F4128F8B505460E4617461C460AD8411F03
:400840003A298CBF002101213F2804D8B6F5807F29D805E00121812E28BF0121102C22D10FB301BB00F082F9F8B92346284631463A4600F00BF90728044611D11B4B1A78FC
:400880001F4612F0020F03D1012000F059F8F5E71A78900702D51B789B0808D04FF0FF3400F084F91FE001241DE004241BE0104B28461A7831465B7800F01EF90728044658
:4008C000EED13A78094B910703D4012000F038F8F7E71A789207E1D51B789B0814BF4FF0FF340024DCE72046F8BD00BF22470040C581FF1F3F288CBF10234FF48073FFF76A
:4009000097BF01BE70470000024A137843F0010313707047F646004010B50446B4F5004F064B05D9186801F0A3FAA4F50044F5E758686043BDE8104001F09ABA0C81FF1FE2
:40094000024B1B7A584301F093BA00BF0C81FF1F08B501F095FA00BF00BF00BF00BF00BF00BF00BF00BF00BF00BF00BF00BF00BF00BF00BF00BF064A13889BB243F00403B3
:4009800013801388BFF36F8FBDE8084001F07CBA00480040054A00F01F00126800F1100352F8230042F82310704700BF08ED00E000F01F0000F16040490100F56440C9B2BE
:4009C00001707047134B144A1B78DBB20360127843EA0223114A0360127843EA0243104A0360127843EA026303600E4B0E4A1B78DBB24360127843EA02230C4A43601278EB
:400A000043EA02430A4A4360127843EA02634360704700BF0301004904010049EC460040020100490101004900010049050100490601004908B501F023FA064A137843F0B2
:400A400008031370137C43F008031374BDE8084001F01ABAA043004070B50E464B1E451EC418A5420CD0074B1B78DB0703D40120FFF766FFF7E7044B1B7805F8013FF0E7ED
:400A8000304670BD224700402047004070B5184D2C78A60727D5174CB6262670D5262670022626702D78AD071FD416462070B51AADB29D4203D216F8015B2570F7E7B3F5A9
:400AC000807F01D0072070BD3F28FBD800F5103001EB0021490100235A5C0133D2B2202B2270F9D1EEE7042070BD092070BD00BF224700402047004070B50D4D2C78A60779
:400B000012D50C4CB6262670D8262670052626702D78AD070AD42070080AC9B22070217022702370072070BD042070BD092070BD22470040204700400A4A137899070CD56A
:400B4000094BB6211970E12119700E2119701278920704D4187007207047042070470920704700BF224700402047004038B501F087F90C4A147874B901250B4915700B6874
:400B80002B400AD00B6823F001030B6000BF00BF00BF556002E0042400E01C4601F074F9204638BDB881FF1F0400084010B501F067F9094B00215A681970012A08D1074C34
:400BC000226842F00102226000BF00BF00BF5960BDE8104001F058B9B881FF1F04000840074B1B789B0741BF064BB6221A70E02241BF1A700D2207201A7058BF042070478C
:400C00002247004020470040F8B501F039F9404A01261378022543F001031370137C3D4C43F0010313743C4B02F5E3521E700B3203F8945C1378074603F07F031370002048
:400C4000FFF77EFE2378354A03F0F90323701378304603F0DF031370237833432370FFF76FFE2820FFF76CFE2D4B28461A7802F07F021A701A7802F0BF021A7023782B4311
:400C80002370FFF75DFE2378384643F004032370244B00241C705C7001F0F6F817200721FFF786FE20491720FFF774FE18200721FFF77EFE1D491820FFF76CFE1520072192
:400CC000FFF776FE1A491520FFF764FE20460721FFF76EFE20461749FFF75CFE30460721FFF766FE30461449FFF754FE28460721FFF75EFE28461149FFF74CFE0C2007213D
:400D0000FFF756FEBDE8F8400C200D49FFF742BEA5430040944300409D60004012600040F851004084600040631600008D14000061160000CD150000F91500002916000079
:400D40006716000008B51D4B1D4A1870002313701C4A13701C4A13701C4A13701C4A13701C4A13701C4A13701C4B4FF400021A604FF080721A604FF400121A6001221A6089
:400D800002221A6004221A60154B29B1012903D11A7842F0010202E01A7802F0FE021A70104B03221A70802203F8202C012001F05FF80D4B04221A7008BD00BFD981FF1FA6
:400DC000DC81FF1FF481FF1FF781FF1FEC81FF1FF681FF1FF981FF1FD881FF1F00E100E009600040286000401260004070B5074C064623780D461BB9FFF706FF0123237004
:400E000030462946BDE87040FFF79CBFC081FF1F0A4A002313700A4A13700A4A13700A4A13700A4A13700A4A13700A4A13700A4B03221A70802203F8202C7047DC81FF1FA5
:400E4000F481FF1FF781FF1FEC81FF1FF681FF1FF981FF1FD881FF1F28600040014B1878704700BFF781FF1F024A0C2303FB002040787047FA81FF1F431E072B9FBF084B85
:400E8000074A00011B189FBF805C5B7800F00F0043EA00209ABF023880B20020704700BFFC5F0040431E072BF0B531D8194B0C2505FB0035EC88184EA4B2C4F50074A24212
:400EC0004FF00C0404FB003488BFEA88E57884BFC2F5007292B2104C45EA12250701BD553C44D5B2657041B90C2202FB0030002343704379DBB2A370F0BD0E46751AADB27C
:400F00009542F1D216F801EB044D05F807E0F5E7F0BD00BFFA81FF1FFC5F004078600040431E072B0AD8064A0C2303FB002300225A705A79034BD2B200011A54704700BFC9
:400F4000FA81FF1FFE5F004070B5064614460D46C9B1431E072B18D8FFF78EFF844203D93046FFF789FF04462A46531B9BB2A34205D2074B31015B5C02F8013BF5E7304613
:400F8000FFF7CEFF02E00C4600E00024204670BD7860004030B500210446FF20074B0C255A5C074B05FB023308339B78A34201D1084630BD09B90121F0E730BDCC81FF1F09
:400FC000FA81FF1F10B51E4C2079FFF7E3FF237813F0800F63780DD0212B2ED1BDE81040184B07221A80184AC0EBC0001044586000F0A2BADBB2202B0ED0222B1DD1A3783C
:40100000124A22F81030124A135C43F002031354BDE8104000F070B90A4A07230A491380C0EBC0030B445360094A135C43F001031354BDE8104000F0A5BA002010BD00BF5E
:4010400000600040E081FF1F1C81FF1FD481FF1FC881FF1F10B5164A00231370154A164C137053702078C0B2431E072B01D8FFF757FF6078C0B2431E072B01D8FFF750FF2D
:401080000E4A13788BB123787BB10D4B197861B11278082A09D8084A1278082A05D81878082894BF0020012010BD012010BD00BFC181FF1FC881FF1FCE81FF1FCA81FF1F5C
:4010C000CC81FF1F0A4610B504460A4B0A491B78C85C0A49C0B20C2303FB0013198989B28A4288BF1A892146BDE8104088BF92B2FFF7D8BEC181FF1FCA81FF1FFA81FF1F5A
:40110000074B084A1B78D05C074AC0B20C2303FB00235B78012B01D1FFF7AEBE00207047C181FF1FCE81FF1FFA81FF1F024B034A1B78D05CFFF798BEC181FF1FCE81FF1F57
:40114000024B034A1B78D05CFFF78EBEC181FF1FCA81FF1F03460A46034904480978405C1946FFF7F1BE00BFC181FF1FCE81FF1FC37890F9020003F0030300280FDA032B2F
:4011800015BF0C480C4802F00103C2F3800319BFC15442F00102C15442F0040207E0032B1FBF0648C2F34003C15442F002021046704700BFCA81FF1FCC81FF1FCE81FF1F85
:4011C00030B51A4A1A490878138803449BB213800023184AD8B21488A4B284B1082B0DD05068154C0078C0B2E05450680133013050601088013880B21080EAE718460B7872
:401200000E4C082B0E4A00D040B10E4D2B7883F080032B700F232370022301E0022323701370094B1870087030BD00BFDA81FF1FD881FF1FE081FF1F00600040F581FF1FD0
:40124000DC81FF1F6882FF1FF881FF1F074B02221A70074B80221A70064B0F221A70064A00231370054A012013707047DC81FF1F6882FF1FF581FF1FD881FF1FF881FF1F05
:4012800010B5164B16491B780A8803F00F03023BDBB21A4492B20A800020124A118889B281B17BB110495468095C013BC9B221705168DBB20131516011880130013989B2B1
:4012C0001180EAE7094A1370094A137883F080031370084B0B221A7010BD00BF29600040DA81FF1FE081FF1F00600040F881FF1F6882FF1FF581FF1F064A06231370064AE9
:4013000001201370054B80221A70054B00221A70704700BFDC81FF1FF581FF1F6882FF1FF881FF1F054B9A683AB19A68044910709A680988518000229A607047E081FF1FAB
:40134000DA81FF1F08B5124B1A78D2B21A701B78DBB21A0602D50F4A137008BD0220FFF7E1FF0D4B1B7803F06003202B05D0402B06D043B900F0B8FB04E000F089FD01E00E
:4013800000F0ECFC10B9034B03221A7008BD00BF28600040F581FF1F0060004008B5084A084B0120197813880B449BB21380064B00221A70FFF7B6FF044B03221A7008BDC6
:4013C000DA81FF1FD881FF1FDC81FF1FF581FF1F08B50C4B1B78DBB2042B07D0062B09D0022B0DD1BDE80840FFF7D8BFBDE80840FFF746BF0320FFF795FF034B03221A7093
:4014000008BD00BFDC81FF1FF581FF1F08B5054B002201201A70FFF785FF034B03221A7008BD00BFDC81FF1FF581FF1F08B50A4B1A7832B11A78094942F080020A7000227A
:401440001A70074B002201201A70FFF76BFF054B03221A7008BD00BFF681FF1F08600040DC81FF1FF581FF1F074B1B78DBB2042B05D0062B05D0022B05D1FFF7A1BEFFF7CA
:40148000C5BFFFF7D3BF7047DC81FF1F10B51D4C2378DBB2DA0634D518060AD503F00F03012B2ED1FFF74EFF174B1B78190609D510BD5A0602D5FFF7D7FF03E09B0620D504
:4014C000FFF786FF23781B061BD4104B104A1B78127813430F4A13701278934211D10A4A084913782078DBB200065FBF1378DBB20B700B78127858BF03F00F039342EED1B8
:4015000010BD10BD28600040F581FF1F6882FF1FF881FF1F29600040054A00231380054A916819B191680B7092685380704700BFDA81FF1FE081FF1F10B50E4C23889BB270
:4015400013B9FFF783FE13E00B4B02221A700B4B00221A70FFF7E0FF094AD1799379228843EA012392B29A4288BF2380FFF728FE012010BDE081FF1FDC81FF1F6882FF1FA0
:401580000060004008B50C4B04221A700B4B80221A70FFF7C1FF0A4A0120D179937943EA012308490A8892B29A4288BF0B80064B0B221A7008BD00BFDC81FF1F6882FF1F8F
:4015C00000600040E081FF1FF581FF1F084B01221A700F3B9B7C074B1A7B02F00302012A1EBFDA7B82F08002DA7301225A7370470B600040FA81FF1F094B02221A700F3B24
:4016000093F82230074B1A7E02F00302012A1EBFDA7E82F08002DA7601225A76704700BF0B600040FA81FF1F0B4B04221A700F3B93F83230094B93F8242002F00302012A19
:401640001EBF93F8272082F0800283F82720012283F82520704700BF0B600040FA81FF1F7047FFF7D5BB00F08FBB000070B50446194B88B003AA03F1100615461868596893
:40168000083303C5B3422A46F7D11B782B7004B32223237001AD032328466370FFF792F920460022AB5C08A901EB131108AC03F00F0311F8141C234413F8143C013281707F
:4016C000082A4FF00001C1700371417100F10400E8D108B070BD00BF37210000F0B5012216490C25164B05FB0216140123441D7014487779204437B13479240601D5857063
:4017000003E0082400E0802484700C2000FB0211C8880132C0B29871C888092AC0F30720D871C888C0B21871C988C1F307215971D6D1054BFF221A70F0BD00BFFA81FF1F5B
:4017400070600040FC5F00400A600040064B074A1B7802EBC30253681A7C824286BF03EBC003586900207047D981FF1F84210000F8B5334B1A78002A61D018780138C0B21A
:40178000FFF7E4FF2F4AC3681478067AE4B203EBC606B34253D01A78A2424ED12A4A5978125D914249D19A780C2502F07F077D43264A4FF0000E5119D87881F803E093F829
:4017C00002C000F0030081F804C093F803C002F805C09D880D8193F90250754507DA01280CBF07200D2048710120487006E001280CBF05200920487181F801E014493D010E
:401800002944012088700C2000FB07221089C0F3072008701089C0B24870D0880D49C0B229448871D088C0F30720C871D088C0B20871D288C2F307224A710833A9E7F8BD7D
:40184000F781FF1FEC81FF1F6682FF1FFA81FF1FFC5F00407060004008B5064B18780138C0B2FFF773FF20B143681B7900EBC300406908BDF781FF1F2DE9F04700210C24EC
:401880004C43504D013100232A1909292B559370D3701381937253705371F0D128B14A494A4A0B7013704B705370494B1A78002A00F08580187801270138C0B2FFF746FF2C
:4018C00080464368067ADB79F60013F0400F414B1A7814BF42F0010202F0FE021A700022D8F80C405FFA87FA04EB06094C453CD0A07800F07F039F4235D10C2303FB07530E
:401900001989B4F804E089B2714538BFA3F808E02D492378CB5C6178994224D10C2179436B181871E078685494F90200E178002801F0030106DA01290CBF07210D21597126
:40194000012105E001290CBF05210921597100215970A37903F0F703022B04D120465146FFF706FC02460834C0E70137092FB7D1D8F80C300A369A1C1E440832B2420AD0D8
:4019800012F8083C0C2003F07F0300FB035312F80A1C9972F1E7FFF75FFF0F4B0122186000230C2101FB0251CB80098901320B44092A9BB2F5D1BDE8F047FFF78FBEBDE883
:4019C000F08700BFFA81FF1F6682FF1FDD81FF1FF781FF1FF981FF1FF081FF1F114B1B7903F07F035A1E072A19D80F490C2202FB031291781B0141F0010191700021D17087
:401A0000517841F002015170127912F0800F074A1A4414BF8D2389239370FFF76DBC0020704700BF00600040FA81FF1FFC5F004030B5184B1A7902F07F02531E072B26D873
:401A4000154B0C2000FB02339978144C01F0FE0199700021D970120110497F25155511445A7802F0FD025A701A795B78120605D5012B01D1887006E00D2303E0012B0CBF3C
:401A8000082309238B70BDE83040FFF735BC002030BD00BF00600040FA81FF1FFC5F004038B50D4B0D4D2C791878E4B20138C0B2FFF74CFE43681B79A34201D2022C09D8DD
:401AC000074A0849135D0120DBB20B55AB78DBB2135538BD002038BDF781FF1F006000406682FF1FDD81FF1F38B58A4A8A4C13780021DBB221801806517840F18D800A2923
:401B000000F20681DFE811F05D00040104010401040104010B0004017E0004018200D2787C4B012A09D17D4B1A787D4B03EBC2035B685B686360122310E0DA78022A12D11F
:401B40009878FFF703FE002800F0E280436863606368DA7863689B7843EA02232380BDE83840FFF7E9BCDB78032B26D16D4B0021684AC8B29578854208D891786A4AEE29C9
:401B800008BF1346634A917881B106E0187801310028F2D01A781344EAE764499278097C914203D16248FFF761FD614B1A78002A00F0AE801A78228018E0BDE8384000F031
:401BC00067B913F0030313D0022B40F0A1802380504B0C211B7903F07F02564B01FB02339A78554BD2B21A7000225A706360B6E702222280514A11784F4AC9B211705370C8
:401C00006260ACE7012323804D4BEFE70123238013794C4A1344E9E701390A2978D8DFE801F037774F77067777770A7720009378454ADBB25AE0937803F0FF0453B9404B1C
:401C40001A78944260D01C70404B01201870FFF713FE59E0601EC0B2FFF778FD0028EED156E0FFF71DFF002852D02A4A384913791279DBB2D2B20A70364A3249D25CCB5C11
:401C80009A4241D0314B01221A70FFF771FD3BE003F00303012B2BD009D3022B38D11D4B9B78002B34D1BDE83840FFF7C1BE194B9B78012B2CD1214A137803F0FD0315E0A2
:401CC00003F00303012B13D008D3022B20D1114B9B78EBB9BDE83840FFF780BE0D4B9B78012B15D1154A137843F0020313700BE0084B1A79012A0BD898781B791649DBB2EE
:401D0000CA5C22EA0002CA54BDE83840FFF7F4BA002038BD00600040E081FF1FD981FF1F84210000E821000070210000E22200006B82FF1FFA81FF1FC281FF1FF981FF1F04
:401D4000F781FF1F6682FF1FF681FF1FF481FF1FEC81FF1FDD81FF1F6982FF1F074B1A78120609D55B78012B06D1054B054A5A6012781A80FFF7E0BB00207047006000405A
:401D8000E081FF1F48210000024B1878C0F38010704700BF8F450040024B1878C0F38000704700BF21510040044A4000137800F0020003F0FD03034313707047205100402A
:401DC000024A137843F080031370704779640040024A137803F07F031370704779640040014B1860704700BF08640040024B1B78024B1868704700BF0864004048640040BB
:401E0000034B1B781B0702D5024B1B68F8E770476B640040486400400A4A08B54FF0FF33136042F8203C00F02BF8074A137843F01003137000F028F8FFF7E2FF034B0022CD
:401E40001A7008BD286400409B6400408B64004010B5054C23781BB9FFF7DEFF01232370BDE81040FFF7ACBFC481FF1F000000000230800803D000BF01380046FCD17047C2
:401E8000EFF3108072B6704780F31088704700BF0F4A137803F00303012B0BD0022B0CD113790C2103F07F020A4B01FB023308339B7800E01379DBB200E00023064A12689B
:401EC000D35C022B01D1FFF77DB80020704700BF00600040FA81FF1FF081FF1F014B1868704700BF9481FF1F0E4B70B51E460E4C0025E41AA410A54204D056F82530984766
:401F00000135F8E700F0F8F9084B094C1E46E41AA4100025A54204D056F8253098470135F8E770BD0423000004230000042300000C23000010B5431E0A44914204D011F881
:401F4000014B03F8014FF8E710BD03460244934202D003F8011BFAE770470000002400000E00000000000000005100401000305100404000C05100401000000001400010B3
:401F800000140140000800400140000A004C01400002005001402000014500400152004001640040280801400C090140320A0140110B014002170140021901400340014060
:401FC0000341014003420140034301400447014004480140024C014002500140015101407E027C408B0D401549FF4AFF4BFF4F0150185A045D095F01604062406440654016
:40200000668068806A806C806E80C051C9FFCAFFCBFFCD83CE03CF01D018D280DA04DB04DD99DF01E040E240E440E540E680E880EA80EC80EE804180478048024F807002B4
:4020400073809F80A180A340A402D018D218405149FF4AFF4BFF4D834E034F0150185A045D095F016040624064406540668068806A806C806E8092019E01B001BE01C015D5
:40208000C5ECC602C807C9FFCAFFCBFFCD83CE03CF01D018D401D804DA04DB04DD99DF01E040E240E440E540E680E880EA80EC80EE800C020D801E804180478048024D04E7
:4020C0004F81558057405D045E805F01C290D018D218D6D0EA02EE0AEA02EE0A33813640CC709F01A640A7809F01A640A7809F01A640A78008080B040F40C20EAE40AF81AA
:40210000EA40EE50AC08AF4401010D01002A4000000000000000C000000B0B0000000000040000060200000000000000415652424F4F543130313030313233343536373881
:4021400039414243444546002800000000010400010000000000000000014359555342000000303030303100000000000000000012034D005300460054003100300030000B
:4021800001000000010000008C21000001000000E2220000000000000000000001000000A4210000010000009F22000003000000CE210000000000000000000000000000F1
:4021C0000000000000000000CC210000020A00008103080002000100820240000A000100030240000A000203040309042C0343007900700072006500730073002000530095
:4022000065006D00690063006F006E0064007500630074006F007200100355005300420055004100520054003803430044004300200043006F006D006D0075006E0069005C
:4022400063006100740069006F006E00200049006E007400650072006600610063006500260343004400430020004400610074006100200049006E0074006500720066001A
:40228000610063006500180343005900380043004B00490054002D003000350039000009024300020105800A0904000001020201030524001001042402020524060001057F
:4022C000240100010705810308000A09040100020A00000407058202400000070503024000001201000202000008B40432F201000502800143000000F8B500BFF8BC08BC2C
:402300009E4670475100000075020000F8B500BFF8BC08BC9E4670472D000000302300000881FF1F90000000F800000000000000000000000000E02EC05D000018000000C9
:4023400000366E0100C2010000000800C20100000008A12000000000020000000000000000000000000000000000000000000000000000000000000000000000F422000049
:402380000000000000000000000000000000000000000000000000000000000000000000000000000000000000000000000000000000000000000000000000003481FF1F4A
:4023C00000000000000000000000000000000000000000000000000000000000000000000000000000000000000000000000000000000000000000000000000000000000DD
:40240000000000000000000000000000000000000000000000000000000000000000000000000000000000000000000000000000000000000000000000000000000000009C
:40244000000000000000000000000000000000000000000000000000000000000000000000000000000000000000000000000000000000000000000000000000000000005C
:40248000000000000000000000000000000000000000000000000000000000000000000000000000000000000000000000000000000000000000000000000000000000001C
:4024C00000000000000000000000000000000000000000000000000000000000000000000000000000000000000000000000000000000000000000000000000000000000DC
:40250000000000000000000000000000000000000000000000000000000000000000000000000000000000000000000000000000000000000000000000000000000000009B
:40254000000000000000000000000000000000000000000000000000000000000000000000000000000000000000000000000000000000000000000000000000000000005B
:40258000000000000000000000000000000000000000000000000000000000000000000000000000000000000000000000000000000000000000000000000000000000001B
:4025C00000000000000000000000000000000000000000000000000000000000000000000000000000000000000000000000000000000000000000000000000000000000DB
:40260000000000000000000000000000000000000000000000000000000000000000000000000000000000000000000000000000000000000000000000000000000000009A
:40264000000000000000000000000000000000000000000000000000000000000000000000000000000000000000000000000000000000000000000000000000000000005A
:40268000000000000000000000000000000000000000000000000000000000000000000000000000000000000000000000000000000000000000000000000000000000001A
:4026C00000000000000000000000000000000000000000000000000000000000000000000000000000000000000000000000000000000000000000000000000000000000DA
:402700000000000000000000000000000000000000000000000000000000000000000000000000000000000000000000000000000000000000000000000000000000000099
:402740000000000000000000000000000000000000000000000000000000000000000000000000000000000000000000000000000000000000000000000000000000000059
:402780000000000000000000000000000000000000000000000000000000000000000000000000000000000000000000000000000000000000000000000000000000000019
:4027C00000000000000000000000000000000000000000000000000000000000000000000000000000000000000000000000000000000000000000000000000000000000D9
:402800000080002011280000A1380000A138000080B5124FF7B1124E002556F80C4C56F8080C56F8102C234638B1043A52F8041F43F8041B191B8842F8D156F8040C1A46DC
:4028400020B142F8045BD11A8842FAD1013F06F11006E2D10DF0F6FA00F0B0FC01000000C08F010010B5054C237833B9044B13B10448AFF300800123237010BDA889FF1FA3
:4028800000000000E0550100084B10B51BB108480849AFF300800848036803B910BD074B002BFBD0BDE81040184700BF00000000E0550100AC89FF1F0881FF1F000000006C
:4028C000AAB1F0B490F8963101390024C5182544013411F8017F0133E6B2DBB2B24285F8947080F89631F1D81046F0BC70471046704700BF414B1B781BB990F85430184670
:4029000070472DE9F0413E4B3E4F1C783E4D3B5D03EB430305EB83035B7823B990F854301846BDE8F0813B5DDBB203EB430205EB82025278012AF1D15A1E072AEED8334A84
:402940001B0116461A449B5D5178023911F0FF01E4D090F854305AB211444029E0DC3C5DE4B26700391905EB8101098904F1FF3EBEF1070F89B23ED8B6464FEA041818F8A9
:402980000630C6449EF801C003F00F034CEA0323023B9BB2994209D918F806109EF8013001F00F0143EA0121023989B281B14E1EB3B2DFF85CC002F114061E441332064431
:4029C0000244C4449CF8083002F8013FB242F9D13C4405EB840500236B706B79C9B2DBB28EF8023090F854300B44DBB280F854301846BDE8F0810021F6E700BF188CFF1F53
:402A00001D8CFF1F248CFF1F288CFF1FFC5F004070600040704700BF03684F4A9B692DE9F0419342044640F090804C4B1B78CBB994F95420002A40F38C8094F85530591CC2
:402A4000C9B25BB24DB22344954284F85510187D01D0BDE8F081002384F8553084F85430BDE8F0813E4B3F4F18783F4D3B5C03EB430305EB83035B78002BD9D03B5CDBB2BB
:402A800003EB430205EB82025278012AD0D15A1E072ACDD8354A1B0116461A449B5D5178023911F0FF01C3D094F854305AB211444029BFDC385CC0B24700391805EB810121
:402AC000098900F1FF3EBEF1070F89B23FD8B6464FEA001818F80630C6449EF801C003F00F034CEA0323023B9BB2994209D918F806109EF8013001F00F0143EA01210239EB
:402B000089B281B14E1EB3B2DFF864C002F114061E44133226442244C4449CF8083002F8013FB242F9D1384405EB800500236B706B79C9B2DBB28EF8023094F854300B441A
:402B4000DBB284F854305AB274E7984770E70021F5E74FF0FF307CE7F5280000188CFF1F1D8CFF1F248CFF1F288CFF1FFC5F0040706000400368474A9B692DE9F041934250
:402B8000044640F08280444B1B785BB994F95430002BC3BF94F95530E418207D4FF0FF30BDE8F0813D4B3E4F18783E4D3B5C03EB430305EB83035B78002BE7D03B5CDBB22C
:402BC00003EB430205EB82025278012ADED15A1E072ADBD8344A1B0116461A449B5D5178023911F0FF01D1D094F8542053B219444029CDDC385CC0B24700391805EB8101B8
:402C0000098900F1FF3EBEF1070F89B23FD8B6464FEA001818F80620C6449EF801C002F00F024CEA0222023A92B2914209D918F806109EF8012001F00F0142EA01210239E0
:402C400089B281B14E1EB2B2DFF860C003F114061644133326442344C4449CF8082003F8012FB342F9D1384405EB800500236B706B79C9B2DBB28EF8023094F854200A4412
:402C8000D2B284F8542053B282E798477EE70021F5E700BFF5280000188CFF1F1D8CFF1F248CFF1F288CFF1FFC5F0040706000400268444992692DE9F0418A42034679D1A9
:402CC000414A12781AB993F95400BDE8F0813F4A3F4F16783F4DBA5D02EB420205EB82025278002AEFD0BA5DD2B202EB420105EB810149780129E6D1511E0729E3D836499E
:402D000012018E46114412F80E204C78023C14F0FF04D8D090F854104AB21444402C10464CDCBC5DE4B24FEA440C0CEB040005EB80000089661E072E80B241D8F0462101BC
:402D400011F80E60884498F8017006F00F0647EA0626023EB6B2B04209D911F80E6098F8010006F00F0640EA0620023880B270B1461E02F1140EB6B2184F764413321E4492
:402D80001A440F44397A02F8011FB242FAD1644405EB840500226A706A79C0B2D2B288F8022093F854100844C0B283F8540040B2BDE8F0810446904794F95400BDE8F081A2
:402DC0000020F0E7F5280000188CFF1F1D8CFF1F248CFF1F288CFF1FFC5F00407060004001207047084A13680133B3F57A7F01D013607047054B002111601A781A7842F03E
:402E000001021A70704700BFC489FF1F11500040F8B572B106460F4614460025336830461B6817F8011B9847013C0544F6D12846F8BD1546FBE700BF10B51A4A01211A4BD9
:402E400011601B789BB9194B1B78194CC3EBC303E118C8788A78497842EA0020E25C41EA002342EA0323B3F5966F11D010BD0F4C104A23781049D25C02EB420201EB820231
:402E80005278002AE1D00D48FFF734FD2378DCE70B4B0C4A40211970137843F00103137010BD00BF80E200E0188CFF1F1D8CFF1F1481FF1F248CFF1F288CFF1FBC8BFF1FA9
:402EC000FA460040F64600402DE9F04F164683B06A4F6B4DDFF8B8A10191C2F387184FF000094FF4FA642B783BB9013CA4B2002CF9D1204603B0BDE8F08F9AF800206149C9
:402F00005E488B5C03EB430307EB83035B78002B48D0B8F1000F4ED18B5C06F03F06DBB25C00E21800EB8202118989B28E4288BF168903F1FF3288BFB6B2072A00F297805E
:402F4000E11800EB8101CA8892B2C2F50072964200F28F804C4FE218BE4600EB8202D1781D0141EA1621F2B22F4405F80E107A70019A12EB89110BD056B1721E434E92B2ED
:402F80000A442E44013911F8015F91423572FAD1234400EB83000023437043790120DBB2BB70A7E7013C45F6C050A4B202F0E8F8002C98D19DE7895C304AC9B24FEA410C72
:402FC0000CEB010302EB83031A8992B23F2A98BF1A8901F1FF3394BF92B24022072B35D80CEB010007EB8000C3889BB2C3F500739A4237D80CEB010307EB830393F803E0C4
:40300000DFF884B008018344D3B24EEA122E8BF800E08BF80130019B13EB89130DD062B1013ADFF868E092B21A448644013B13F8010F93428EF80800F9D1614407EB810118
:4030400000234B704B79DBB28BF8023009F1010908F1FF385FFA89F95FFA88F8002C7FF442AF46E7C288C2F5007292B2C2E7012040E7CE88C6F50076B6B26BE7288CFF1F0C
:40308000188CFF1F948CFF1FFC5F0040706000401D8CFF1F10B5144692B2FFF715FF204610BD00BFF0B50E46354D83B0C9242B7853B945F6C05002F063F8601E10F0FF04DC
:4030C000F5D1204603B0F0BD2E4F2F4D3A782F4C04E045F6C05002F053F83A78AB5C03EB430304EB83035B78002BF2D0AD5C8DF80760EDB26B1E072B2CD84FEA450C0CEBBC
:40310000050304EB8303DA8892B2B2F5007F24D0DA781F4B4FEA051E18460121D2B20EF800200846734459700DF107073A46194E764412F8011BD31B9BB298423172F8D8E7
:40314000654404EB8504002363706279104BD2B273449A70012003B0F0BD0D4AD8881646DB78C0F5007080B24FEA051E43EA1023C1B272440EF8063051700028D4D1DFE70A
:40318000188CFF1F1D8CFF1F948CFF1F288CFF1FFC5F00407060004070B5064608460D460DF03AFE044629463046A2B2FFF78CFE204670BD704700BF704700BF2DE9F84FA5
:4031C00062B6B74FB74A3B7980211170002B00F07B827B79002B00F04C82B34AB979137843F080031370002900F01682AF4AF9791378DFF8ACC243F080031370002900F0B4
:40320000DE81AB48AB4A0378AB4943F0010303701378AA4843F0010313700A78D0F800E0DFF8D0823879DFF8D0C2A54DA54C42F001020123E0260A70C8F80030984ACEF836
:4032400040C02E702360002800F0B581DFF890829D4801F095FFD8F800300C225B689B4940469847D8F800300D211B6840469847D8F800300A211B6840469847944A1378C0
:4032800003F07F0343F00C03137001F081FF914B19461A7842F001021A700B788D4A9C07FBD58D4B1C781378E4B203F0FE03137001F072FF582C03D05820022101F0AEFE15
:4032C000387A774E002800F03E81824C784926460B78784A43F002030B701378DFF81C9243F002031370754A99F80030D2F800C0DFF800B2DFF808A278487249022243F0DC
:4033000001034FF0E00E764D89F80030CBF8002009F20519CCF844A080F800E00A607048FFF7E8FA98F95430002BF8DD6C48FFF7E1FA95F95400002840F3018195F8553087
:403340005A1CD2B25BB22B444FFA82FE7045197D08BF002385F8552004BF85F8543085F855300B465E48FB60FFF79CFEFB68482B00F089804C2B6FD0452BD0D159490F22D6
:403380005748FFF7A1FD01F003FF237843F00103237023789A07FCD54F4B93F800A033785FFA8AFA03F0FE03337001F0F5FE51464B48FFF777FE01F0EBFE337843F001035C
:4033C000337023789B07FCD5434B93F800A033785FFA8AFA03F0FE03337001F0DDFEBAF1580F00F08F8001F0D3FE337843F00103337023789A07FCD5374B93F800A03378BB
:403400005FFA8AFA03F0FE03337001F0C5FEBAF1580F03D05820022101F000FE32490F222F48FFF751FD01F0B3FE237843F00103237023789B07FCD5274B93F800A0337831
:403440005FFA8AFA03F0FE03337001F0A5FE51462348FFF727FE62E799F80030204803F0FE0389F800302B6820495B68032298472B680D211B681A4898472B680A211B6887
:40348000174898474BE799F80030154843F0010389F800302B6816495B680422E7E700BFC489FF1FFA4600407865004075650040A3430040B3430040004F004008ED00E04C
:4034C00000E400E000E100E0000E27073058010011500040024700400280004001E400E0BC8BFF1F4C5801005C580100485801004058010080E100E0392E00000C4F004095
:40350000E52D000001F044FE337843F00103337023789907FCD56F4B93F800A033785FFA8AFA03F0FE03337001F036FEBAF1590F3FF474AF0221592001F070FD6EE7FF21B4
:403540004FF0FF330EE7644A644C1378644903F0010313702278634B02F0FC0222700A78DFF8DCC142F001020A701A784FF47A7402F0CF021A7019785B4A41F03001197035
:403580001978DFF8C0E101F0F00119701978574D41F00F011970ACF800401378012143F002031370AEF800401378317203F0FD031370287089E6137101F038FB46E64FF6A2
:4035C000FF704B4C4B4D22784B4B02F0010222702A784FF0010802F0FC022A701A78DFF868E102F0CF021A701A78444E42F030021A701A7802F0F0021A701A7842F00F021C
:403600001A7063788CF8078043EA08036370AEF8000030806970F4E53949143A0B7803F0F80343F001030B700B7803F0FC030B7013785E0604D5334B196811784D06FBD4B2
:40364000314E324D324C4FF0FF3300223149324833602A60227002780B6001F099FD2F4A137843F01003137001F096FD0123BB71BCE52B4A2B4B117801F0F8011170117882
:4036800001F0FC0111701A78500604D5264A116819784906FBD4254E254D264C4FF0FF33002225491F4833602A60227002780B6001F06EFD214A137843F01003137001F0E3
:4036C0006BFD01237B7188E501233B7101F0AEFA7FE500BF028000400C4F00400E4F00400D4F0040174F0040A34300400F4F0040004F0040024F00400B4F0040064F00400A
:4037000075650040446500402465004004650040846500403465004064650040946500407865004068650040486500402865004008650040886500403865004098650040F8
:40374000104F0040124F0040044F0040014B1B78704700BF8F4500402DE9F043DFF850C0DFF85090DFF85080DFF850E00B4F0C4E0C4D0D480D4A00230324802189F8003023
:4037800088F800308CF800308EF800303B7033702B7004701170BDE8F08300BF1A8CFF1F1B8CFF1F1C8CFF1F2860004008600040188CFF1F168CFF1F178CFF1F198CFF1F75
:4037C000704700BF0C490D480A780D4B02F0FB020A7090F8322093F8242002F00302012A05D093F8272082F0800283F82720012283F82520704700BF0B600040FC5F00409F
:40380000288CFF1F0A490B480A780B4B02F0FD020A7090F822201A7E02F00302012A03D0DA7E82F08002DA7601225A76704700BF0B600040FC5F0040288CFF1F09490A48B5
:403840000A780A4B02F0FE020A70827C1A7B02F00302012A03D0DA7B82F08002DA7301225A7370470B600040FC5F0040288CFF1F70B40748074E084C084A062380250021CB
:403880000370337025701170012070BC704700BF168CFF1FB08CFF1FAC8CFF1FB88CFF1FFEE700BF704700BF90F8943113B10344187D70474FF0FF30704700BF10B490F859
:4038C0009441034694B190F895114A1CD2B20144944280F89521087D02D05DF8044B7047002283F894215DF8044B70474FF0FF30F3E700BF90F8942190F89501101A704762
:4039000010B504680C4AA46982B0944203468DF807100BD190F89621C8B2991881F894000132012083F8962102B010BD0DF107010122A04702B010BDC128000000EB40000B
:40394000C00001F01DBC00BF714AF0B513889BB2002B00F0B0806F4C6F4D704E0221002321702B703380916819B191680B7091684B806B49664FC8798B79118843EA00237F
:4039800089B28B42674838BF3B8007783188604B394489B23180128892B2002A00F09F8059685F4A0978C9B211705968013159601988013989B21980198889B2002900F004
:4039C000978059680978C9B251705968013159601988013989B21980198889B2002900F0898059680978C9B291705968013159601988013989B21980198889B200297BD070
:403A000059680978C9B2D1705968013159601988013989B21980198889B200295CD059680978C9B211715968013159601988013989B21980198889B200295FD059680978EC
:403A4000C9B251715968013159601988013989B21980198889B2002952D059680978C9B291715968013159601988013989B21980198889B2002945D059680978C9B2D17154
:403A80005A6801325A601A88013A92B21A801B889BB2002B38D0037808232A78224E82F080020F2702212A70377021701F4A137003700120F0BD174F174D1B4819491B4A81
:403AC0004FF0020E80260F2487F800E02E7004700B7013700120F0BD04230278DDE70378082B13D01049134602220A702270DDE70123F2E70223F0E70323EEE70523ECE7D6
:403B00000623EAE70723E8E70823E6E71346C4E7A08CFF1F168CFF1FAC8CFF1FAE8CFF1F006000401C8CFF1FB08CFF1FB88CFF1F2DE9F04F934A89B01378DBB2DD0609D578
:403B40001C060AD403F0400202F0FF01002A70D19C064ED409B0BDE8F08F03F00F03012BF8D11378DBB213701378DBB2180600F17383854CA36843B1A2680221834B117014
:403B8000A268198800235180A360814A137803F06003202B00F05E81402B00F06281002B00F06E817B4903230B700B781D06D1D4744A13781B06CDD47749784B1B78087804
:403BC000774903430B7009789942C3D171490C460B781078DBB2000605D42378DBB21370137803F00F0308789842F1D109B0BDE8F08F6C4A1378DBB2042B00F0F980062B06
:403C000000F0EF80022BD3D1674B604C1D7823885D482B449BB2238011708368002B00F0DC80836801221A70836822885A808160D3E05C4A1378DBB2042B00F0C180062BE5
:403C400000F0B480022BB3D15048574D4E4C2E780188314489B20180208880B2002800F0018361684A480978C9B201706168013161602188013989B22180218889B2002973
:403C800000F0ED8261680978C9B241706168013161602188013989B22180218889B2002900F0EA8263681B78DBB283706368013363602388013B9BB2238023889BB2002BB1
:403CC00000F0D88263681978C9B2C1706168013161602188013989B22180218889B2002900F0CC8261680978C9B201716168013161602188013989B22180218889B20029ED
:403D000000F05F8361680978C9B241716168013161602188013989B22180218889B2002900F04D8361680978C9B281716168013161602188013989B22180218889B20029B3
:403D400000F0BD8361680978C9B2C1716168013161602188013989B2218023889BB2002B00F0AF832B7808200C4C0A4923780F2783F08003022623700F701670064B187086
:403D8000287015E728600040A08CFF1FAE8CFF1F00600040B08CFF1FB88CFF1FAC8CFF1F29600040168CFF1F1C8CFF1F884B197831B11978874C41F080010020217018706F
:403DC0000021854B11709A683AB19A680124834814709A68008850809960814903230B70E6E67D4B9A68002AF7D09A680324EEE77C4B7A481A78038802F00F02023AD2B242
:403E000013449BB2744C038023889BB2ABB1FAB1754801E00131DAB16568435C013ADBB22B706368D2B2013363602388013B9BB2238023889BB2002BECD16C4B6C481A7080
:403E40000378674983F080030B2203700A70AFE60022F2E701F02EF800283FF4A3AE6049A3E613781E067FF59DAE5378012B7FF499AE604A282362602380FFF765FDEBE7DF
:403E800011782380CBB2190600F1FA815778FFB27A1E0A2A3FF686AE01A151F822F000BF293F0000A53B0000F9410000A53B0000AB3F0000A53B0000A53B0000A53B000071
:403EC00019400000A53B0000CD3E0000464F4A483B790178494EC9B20129DBB2327840F0F282022B3FF65EAE454A464D134493F82840E4B283F82C40BC78E4B283F828400F
:403F00003B793C791344E4B22C7093F82C4093F828309C4205D03C4B19700378002B40F01783FFF7A5FC97E703F00303012B00F0CD82C0F0EA82022B7FF434AE2A4B9A78E4
:403F400002F0FF06002A7FF42DAE1A7902F07F02531E072B3FF626AE2C4B0C2404FB023399782B48120101F0FE017F259970DE7015545878264900F0FD0058701879114480
:403F800007065B7800F19783012B0CBF082309238B70204E1249164C144A06238025002033700B7025701070FFE50F4BDFF820E09B78184F0A490E4D0C480622DBB2802637
:403FC00000248EF800303A700A702E700470ECE51A8CFF1F08600040A08CFF1FAE8CFF1FB08CFF1F2960004000600040B88CFF1FAC8CFF1FAC590100188CFF1F158CFF1FD0
:40400000EC89FF1F198CFF1F178CFF1F288CFF1FFC5F0040168CFF1FBC4B9B7803F0FF0123B1BB4B01291B787FF4BCADDFF8088398F800309942ACD0B64BDFF804C3B648A6
:404040000022012488F8001004701A709A70DA701A819A725A705A711A739A73DA739A829A755A735A741A769A76DA761A8483F822205A765A7783F8242083F8262083F847
:4040800027209A8583F82E2083F8252083F8292083F8302083F8322083F833201A8783F83A2083F8312083F8352083F83C2083F83E2083F83F20A3F8442083F8462083F8F0
:4040C0003D2083F8412083F8482083F84A2083F84B20A3F8502083F8522083F8492083F84D2083F8542083F8562083F85720A3F85C2083F85E2083F8552083F8592083F8D4
:40410000602083F8622083F86320A3F8682083F86A2083F8612083F865208CF828208CF82C208CF829208CF82D2098F8001000293FF42FAF98F800007549C0B2A0420978A9
:4041400040F07D82754C764D217801F0FE0121700C2100EB400E01FB003903EB8E0E71495FFA80FA03E00831A94200F02C8111F8064C04F07F068642F5D1BEF8086031F873
:4041800004BCB6B25E4511F8086C38BFAEF808B0664411F807BC96F82860B345E3D111F8056C14F0800F8EF8044006F0030B8EF8006040F09D81BBF1010F14BF3C460524E1
:4041C00089F80540002489F8014011F8024C04F0F704022CC7D111F9064C06F00306002CC0F29E81032EBED04F4EC2F3400406F804A042F00202B6E703F00303012B00F0D0
:404200006581C0F09881022B7FF4CCAC3F4B9A7802F0FF00002A7FF4C5AC1B7903F07F035A1E072A3FF6BEAC3A490C2202FB031291781B0141F001019170D070517841F075
:4042400002015170127912F0800F384A1A4414BF8D23892393709CE635490B70A5E401202B7881E5297808293FF47EAD30490B70137083E50320F3E71846F1E70420EFE7E2
:4042800052780A2A3FF68EAC01A151F822F000BF83430000A53B0000A53B0000A53B0000A53B0000A53B0000DF420000A53B0000D1420000A53B0000BD4200000122134B3B
:4042C00022801B791B4A13446360FFF73DFBC3E5194B012222806360FFF736FBBCE50B4AD378012B00F00082D378022B00F0E981D378032B7FF4AEAD9378002B00F073820D
:404300000E4B197839B300211EE000BF00600040158CFF1F288CFF1F178CFF1F1B8CFF1FB45901009C590100248CFF1FFC5F0040B08CFF1F148AFF1F188CFF1F6C58010008
:40434000EC89FF1F187830B11D7801319078C9B281422B44F6D3BD4ABD4895789178EE2D08BF034619B19278802A00F0F3811A78002A3FF417AC1A7822806360FFF7E4FA48
:404380006AE513F0030300F08581022B7FF40AACAE4A23801279AF4B02F07F020C2101FB0233AD4A9B7802F12401DBB2002082F8243082F825006160FFF7C6FA4CE506205E
:4043C0004EE705204CE7013009287FF4C1AEA34C00210122A24D9975A270A27398F800002D785982998A904288B2D883198C9D4D014488B25885998D9B4E014488B2D88624
:40440000198F18BF0025014488B2A3F84200B3F844103560014488B2A3F84E00B3F85010203C014489B2A3F85A10B3F85C000C25014489B2A3F8661080260827B3F86810D3
:4044400029E005FB024C9CF804C01CF0800FDFF840C214BF0CF80E500CF80E70114403EB8101B1F806E001325FFA8EFE80F806E0B1F806E0092ACEF3072E80F807E0B1F8D8
:4044800006E05FFA8EFE80F804E0C988C1F30721417100F0D68075484FEA021E5100704401EB020C057003EB8C0C9CF805C0BCF1000FC6D1DFF8D8C10CF80E60CEE7072036
:4044C000CEE60820CCE600235B68FFDE5F490B79012B3FF667AB88785F4A0B79134493F8302022EA000283F83020FFF7C1F9B3E4BBF1010F0CBF4FF0070B4FF00D0B0124F9
:4045000089F805B089F801405FE6504B9B78012B7FF448AB564A137803F0FD03137000E5032E00F06281534E02F0010406F804A042F0010217E6454B9B78012B7FF432ABE9
:404540004B4A137843F002031370FFF791F983E403783178DBB2012B6ED1297801F0FF00002900F0CB8001287FF4DBAC511C91F8283003F0FF0C4BBB364A3F4C4FF0820E19
:40458000022740260D2582F81BC082F81CE01776168455775076A07002F11803128C3748C2F3072280F820201889354AC0B26070D888C0B29071D888C0F30720D071D888D5
:4045C000C0B21071DB88C3F30723537191F8283003F0FF02002B7FF4A4AC1E4B29484FF0030E022740260925012483F8272083F828E083F824709E8583F8295083F82520C7
:40460000847003F124019B8D1C4AC3F3072382F830300A891C4BD2B24270CA88D2B29A71CA88C2F30722DA71CA88D2B21A71CA88C2F307225A7174E400231B7AFFDE536895
:40464000FFDE124BFF221A70A3E400BF0060004024590100288CFF1FEC89FF1F488CFF1F158CFF1F385901009C8CFF1F706000401B8CFF1F948CFF1F1C600040FC5F004099
:40468000906000402C600040A06000400A600040FE5F00400221594A21801178584AC9B202F1240082F8241082F825306060FFF74BF9FFF7D1BB012B16BF0D238C708B7032
:4046C00067E493784F4A1278002B7FF46BAA4E4B63606368DA7863689B7843EA02232380FFF732F9FFF7B8BB484A46491223097862602380FFF728F9FFF7AEBB92F8282034
:4047000002F0FF07002A7FF40CAC4148414A0D21812603250824C773067405738482417443739370838A3C49C3F307231370838ADBB25370438ADBB28B71438AC3F30723FA
:40474000CB71438ADBB20B71438AC3F307234B71FFF7E7BB314E03AD0FCE0FC53168284822222F4B2970027000211B7802460D46DBB22C4E019337782B4E43EA0723019377
:4047800037782A4E43EA07430193377843EA0763019316F8013CDBB2029316F8027C43EA07230293F77843EA074302933779032643EA07634670029301AE735C08AF03F0AA
:4047C0000F00384407EB1313013110F8140C13F8143C0829D57055711071937002F10402EBD1074BC3E5124BB5E5124EC2F3800406F804A042F00402B5E400BF1B8CFF1F6B
:40480000EC89FF1F158CFF1F505901003C590100288CFF1F0C600040806000402C8E01000301004904010049EC460040020100496C580100988CFF1F094908B50A68094B58
:404840001044C31AB3F5005F02DC0860104608BD0BF0DEF80C234FF0FF320360104608BD1081FF1F1095FF1F2DE9F84FBA4ABB4BBB491A600B68BB4A43F40073BA480B60CB
:404880000023032B94BF50F82310B8490133302B42F8041FF5D1B64BB64E1978B64AB74B31701A6072B6B64F00243D4604EB4403AA8857F81300013400210BF0D7FE072C7C
:4048C00005F10605F2D1AF4D002404EB840307EB430353F82C0F2A89013459680BF0ECFD4B2C05F10A05F0D1A74AA849137845F6BF5943F0020313700B78A2F5863243F056
:40490000020342F2512C0B70633A1378A1F5863143F04003137051390A789D4F9D4B9E4D42F010020A7003CB3860796093E8070003C5EE3703F10C012A8007C903C7DFF885
:40494000B8B203F1200A03F1180EA83D3A80BEE80300CBF80000CBF804109AE8070003C50BF5374BDFF894A2DFF894E207F53A478A482A8044218A4A0BF1C60B63378BF86A
:4049800000108AF800108EF800103970017092F800B084484BF0080B82F800B08249DFF864A2612202701924DFF85CE27F4FDFF85CB201220A80A5F585558AF80040A0F210
:4049C00074704FF0170A7A4AAEF800A03C70A5F800A08BF80040A0F800A04FF0EF0A8C73A2F800A006214FF0520A724A8EF80E40A7F80E90AC738BF8761280F874A1127844
:404A00006D49A0466D4C2C33D2B24FF4E3690A7005F29D15AEF89E9103CB20606160A7F89AC1002401E0032C0ED02B784FF4F07003F0010343EA440400F0A2FBB8F10108AB
:404A400004F00304EFD1FEE75D4A5E4CDFF8C0C15D4D5E48002702235D494FF480794FF007084FF0080EA2F8009082F800808CF8003085F800E01770277003700A788125DE
:404A800042F03F0253480A70DFF8889184F8F7570278DFF884A199F8004001F5A6519AF80080D2B20CF5C35C0C31E4B202F0070E0CF1090C120981F800E05FFA88F88CF80D
:404AC0000020454D44F0030289F80020DFF84CE1402248F0030C4148DFF844B18AF800C02A704FF0200CB22502708BF800300A208EF800C081F8EA52FEF720FF384DDFF850
:404B000024E1384B8AF800804FF0440C0FCB89F800408EF800C007C5334C2B80DFF808814FF47A7520463149314A6760A5607760C4F8008000F0CAFE08F1280304F5CE70A6
:404B4000C4F89C31C4F8A071C4F8A4512949284ABDE8F84F00F0BABE0004FA050CED00E014ED00E0FC7FFF1F00280000A1380000BC7600400081FF1F0080FF1F08ED00E01B
:404B8000D8590100045A0100035001401350014002510040F45C0100C0510040D80C014022430040004800408040004086400040904000400F010049A1460040325100404C
:404BC00004400040094000400840004001400040A2430040CF010049095900400B590040B0430040A0430040208AFF1FB53100000C81FF1FB931000012510040DB080140BB
:404C0000580C014082400040844000408A40004006400040F8460040F94600402B5B0040845A004076580040385D01002DE9F843894D002395F8F4610A22A5F8F22185F82F
:404C4000F03185F8F131002E78D100F0A1FA834A83491378804643F0010313700B78814C8148012702F5E35243F001034FF002090B700B32277080F800901378A4F5E85429
:404C800003F07F03093C13703046FEF757FE2378764A03F0F90323701378384603F0DF03137023783B432370FEF748FE2820FEF745FE48466E4B1A7802F07F021A701A78EA
:404CC00002F0BF021A70237803432370FEF736FE23786849684A43F00403237040460E70167000F059FA654A04F1A02411686448E02383342370C1F89C001168614863701E
:404D0000C1F8A0001168604804F8023CC1F8940011685E4804F8143CC86411685C4804F8133C086511685B4804F8123C4865126859485A4985F8F47103701167584A0023A3
:404D400049494FF4000C4FF0807E4FF4001708261024202085F8F53185F8F63185F8F73185F8F83185F8F93185F8FA3185F8FB3185F8FC31C2F800C0C2F800E017601660E4
:404D8000146010600B78474A474E43F00103802403270B7001203770147000F0F1F9334B04221A70152495F8F83140482A4A43B900F0E6F9601E10F0FF04F4D12046BDE88B
:404DC000F883002182F8001282F8011292F8043282F8FD11DBB2581E072830D995F805321D49DBB25A1E072A1BD995F874221A4B12B90120BDE8F88393F80422002AF8D0F0
:404E000093F87822002AF4D093F87422082AF0D893F80422082AECD893F878320120BDE8F8830C2202FB0312002182F8091292F80D121F4A1B01C9B21A449170D5E70C2041
:404E400000FB032282F8091292F80D12184A1B01C9B21A449170C1E7208AFF1FA5430040B54300409D6000400960004012600040F8510040846000408560004008ED00E06D
:404E800059370000313B0000C13700003D38000005380000C53700000CE400E04D37000000E100E00860004028600040009F2400FC5F004030B4564A137803F00303012B39
:404EC0005CD0022B0AD0534B0022D3F87C025149825C022A14D0002030BC704712794D4B02F07F0202EB420203EB820202F504729278D3F87C02D2B2825C4649022AEAD15A
:404F0000434A107991F87822C0B202EB420201EB820202F504729278904268D091F8792202EB420201EB820191F8122290420CBF0120FF2036490A7812F0800F4A7858D1C9
:404F4000D2B2202A1ED0222AC5D18A7803EB4001A1F89422184490F80022062142F002028025002480F8002283F8F611012083F8901283F88C5283F89842ADE71279254B50
:404F8000D2B2A2E72449C0EBC0020A440721A3F880121844C3F8842290F80022042542F001028024002180F8002283F8F65183F88C42A3F88E12D3F88802164A28B1D2F8A5
:404FC00088020170D2F8882251801149114CC8798A79B3F8801242EA002289B28A4238BFA4F880220B2283F89022012074E70020A0E7212A7FF46FAF30BC074AC0EBC000AE
:4050000002440721A3F88012C3F88422FEF79CBC00600040208AFF1F1481FF1FF8B50C46054600F0B5F84F494F4A0B7843F008030B70137843F00803137000F0ADF8B4F52E
:40504000006F02D301242046F8BD00F0A1F8474E024696F8993223B1042400F09DF82046F8BD434B0121186886F89912C70708D5186820F00100186000BF00BF00BFC6F849
:405080009C12104600F088F83A4B1A78920719D44FF0FF3400F07CF8D6F89C220023012A86F89932314902D000F076F8CBE7304D2A6842F001022A6000BF00BF00BFC1F8C6
:4050C0009C32F1E72C4AB6270121D420177010701170197801F0020101F0FF070029D7D12009C0EB003104EB011189B2C1F300244FF0400EC9B282F800E0147011701770C5
:4051000015701A781B499507FBD50B789C07BFD50B789B08BCD10B789B07B9D5164BD8240522B6251D701C701A700A7802F0020202F0FF04002AABD1C0B240221A701C7069
:4051400018701C701C700B780A4A9807FBD5137899079DD513789B0814BF4FF0FF34002498E700BFA0430040B0430040208AFF1F040008402247004020470040000000001D
:405180000230800803D000BF01380046FCD17047EFF3108072B6704780F31088704700BF10B431F0004408D0114BA1F580129A4208D804205DF8044B704718B902205DF8C6
:4051C000044B704701F1FF41094B01F5E0019942EFD9B4F5801F01D20320EBE7054B9C4201D00020E6E7B0FA80F04009E2E700BFFFFFDF7F0000F07F70B5066884B000240C
:4052000010231546029312686B46B66900948DF804400394B0479DF8043003F00603062B11BF2046009B01202B6004B070BD00BF009890420CBF06200120704710B50446C1
:40524000024B036000F00CFE204610BD687C010010B50446044B036000F002FE204600F01BFE204610BD00BF687C010038B515461C4600F0FBFD20B1082206232560E260F8
:40528000237138BD2DE9F04116461C4607460D4600F0ECFD08B9032C01D9BDE8F0812B68394632462846BDE8F0415B69184700BF70B582B0069C089916468C4205460CD06C
:4052C0002846194600F0D2FD20B1099A0123146016719371002002B070BD0799019300F0C5FD019B0028EBD0099B5E71F2E700BF30B400252A4610F8014B04F07F03934006
:405300001D43230602F10702F5D41F2A05D8630603D54FF0FF3393401D430D6030BC7047F0B5502885B0054645D00F4600F00F010C293ED8DFE801F007293907173D3D3DBC
:405340003D1F1B071700104650F8044B44B105F07001102918BF3A4614442A0648BF24681C6005B0F0BD104650F8084BEEE7104630F9024BEAE7104603A901930092FFF746
:40538000B7FF9DE80C00039CE0E700242646104610F801EB0EF07F01B1401EF0800F44EA010406F10706F3D1D0E7104630F8024BCCE70AF01BFBD01C20F0030050F8044B84
:4053C0001C6005B0F0BD00BFFF2815D008B500F07003202B12D00AD9402B14D0502B17D0302B07D1BDE8084008460AF0F7BA7BB1102B0DD00AF0FAFA002070470846BDE80E
:4054000008400AF0EFBA0846BDE808400AF0D6BA002008BDF8B50C4615460746002842D00AF0CCFA286026780134FF2E32D039463046FFF7C9FF224601462B1D3046FFF796
:405440006FFF04462378601CFF2B2B7528D00024224610232B7510F8011B01F07F039340090644EA030402F10702F4D40444EC6000242246037801306B7510F8011B01F009
:405480007F0393401C430B0602F10702F5D404442C61F8BD68602378601CFF2B2B75D6D10023EB60E4E7BDE72DE9F04F00F0030393B00024012B0F461546069400F09E8075
:4054C0000ED3022B0AD1384629460AF063FA002800F0AF80092013B0BDE8F08F0AF086FA00F0080000F0FF010028ECD112AB43F82C7D009310460B460C2209F0C1FC2846B4
:405500000AF062FA4FF0010881460028DBD00CAB1A46494628460393FFF77CFF294682469DF84400FFF750FF0BAE00210E900B460F220096284609F07BFC0B9B109A23F0F2
:405540000103924503F1FF343AD29DF845B000215846FFF739FF5246014609AB5846FFF7DFFE9DF845A0834600215046FFF72CFF5A4601460AAB5046FFF7D2FE9DF845A015
:40558000834600215046FFF71FFF5A46014633465046FFF7C5FE8246002001461AF801EB0EF07F038B401EF0800F40EA030001F10701F3D1099A0C9B13449C4280F09080A9
:4055C0004FF0000A0126002418F0010F00F09180022E3FF478AF0AAB0021284600930D220B46069D09F024FC0A9B7D62BC62C7F82C90C7F830A03B6206206CE700F00800A7
:4056000000F0FF04C8B112AB002143F82C7D00930C220B46284609F033FC28460AF0D4F944F002045FFA84F8814600287FF46FAF49E7082013B0BDE8F08F0CAB00930393B1
:405640001046234621460D223E6A09F0F1FB0C9B9E42D8D112AB43F82C7D00930C2223462846214609F00CFCD7F830A0BB6AFA6ABAF1000F42D01C4691460326002CC0F243
:40568000CD8012AB002143F8287D0A46009328460B4609F0F5FB12AB43F8244D0021009301220B46284609F0EBFB0AAC00210B4600940F22284609F0BBFB0A9B002103F0B3
:4056C0000103009428464AEA03040F220B460A9409F0D6FB022E69D0072013B0BDE8F08F0A9A13449C4213D3109B9A45FFF42DAF66E718F0080F04D1012EBFD1384600F082
:40570000A1F9012E00F0E080002CBADA00F002FB0B9B002B3FF4D7AE0D9A03EB020A002800F0B980109B01381844BAF1000F3FF4CAAE002800F0B38018F00803059300F09D
:40574000B08047224E2355213A707B7043224623B970FA704F2152223B7100237971BA71FB7100239B46049508A9FFF7C1FD09A90446FFF7BDFD089B002B32D034DD9DF85B
:405780004400FF286CD000F00702042A3FF6A6AE01A151F822F000BFDD570000DD540000D7570000DD570000B7570000384600F025FA07208FE6DB005B420F9A0E991A44B2
:4057C0000AABFFF7ADFD0A9929B3EFB9099B002B70D0E018C8E75B005B42EEE79B005B42EBE74FF0010BF1E717B1059A002A39D05A1C0F99C2EB827251F82220002AE5D1B9
:40580000049D1C460326DFE63846002206AB00F09DF90028DAD0049D089BF2E7039A49462846FFF7F7FD29469DF84400FFF7CCFDA20082F00302D2430F990E908B5801EBE3
:40584000020E33B17246002352F8041F01330029FAD10422BB62F862C7F834E03A6310E70023AAE70F985A1CC2EB827250F8221000EB8205069A0B920029C1D02944384680
:405880000022334600F062F900289FD155F8041F0029F3D1BFE7BAF1000F3FF414AE022691E6FB79012B0CBF57F8203C07F15803069356E75A46049D002A3FF404AE1C4628
:4058C000022681E600F040FA00F016FA0346084619460AF093B800BF10B50446024B0360FFF7ACFC204610BDC87C010010B50446044B0360FFF7A2FC204600F0CDFA204648
:4059000010BD00BFC87C010070B582B0069C0D469442064609D0B0682946056806942C6AA44602B0BDE87040604719460192009300F09CFA009B019A0028ECD0062002B096
:4059400070BD00BF2DE9F04F0C4681B019461F46914683460A9EDDF82CA0DDF830800D9D00F084FA70B1002C2E6085F804901DDB3444A0450CBF06240124AC71002001B0D0
:40598000BDE8F08F464516D0DBF80800214604680A96CDF82CA0CDF830800D95E4694A463B46A44601B0BDE8F04F60470234E5D10123AB71E2E75846514600F057FA002845
:4059C000E2D085F80590D9E72DE9F04107460E4615461C46FFF74AFC08B1BDE8F081B868314606682346B4692A46A446BDE8F041604700BF08B503491B2202200CF0FEFCF4
:405A000000F07AF9247D01000378472B01D00020704743784E2BFAD18378552BF7D1C378432BF4D10379432BF1D143792B2BEED183792B2BEBD1C07901288CBF00200120A3
:405A4000704700BF10B530B1044600F07DF92046FFF7DAFF08B900F04FF954F8140C00F037F900BF2DE9F04F83B00446FFF7CCFF68B154F8185C204654F8147CD4F82880BF
:405A8000266B646B00F060F9284600F03FF9204600F05AF900F03EF900F056F900F02CF900F052F900F0D8FA036893F82720012A33D003F178024FF00009CB46009226F0AC
:405AC000030603F1200AC3451BDA256805B125445046294600226B4600F038F810BB2B6802AA42F8040DD3F810C0284611490123E047002818BF4FF001090BF1010B344413
:405B0000E1E7B9F1000F0AD0042000F061FA0A4B08490360094A00F0E3F91A68CBE7384600F0D6F800F01CFA00F054F900F052F900F006F8CC7E0100987E0100996100003B
:405B40001EB400F08DF81EBC09F04AFDF0B5027883B0472A0E461F461AD00023254C0193236820469B68984780B1019B02251B6801933368214630461C6901AA0123A047A5
:405B800010B12846019B3B6003B0F0BD0125F0E743784E2BE1D18378552BDED1C378432B19D0C378432BD8D10379432BD5D143792B2BD2D183792B2BCFD1C379012BCCD8EB
:405BC00004D050F8204C58300190C9E750F8200C50F8784CF8E70379462BE2D143794F2BDFD18379522BDCD1C379002BD9D10193014CB5E7847E01002C7E010010B50446FE
:405C000000F02EFA2378A4F12002472B04D0836823BB8260012010BD63784E2BF7D1A378552BF4D1E378432BF1D12379432BEED163792B2BEBD1A3792B2BE8D1E379012BAA
:405C4000E5D854F8043C0133012B44F8043CE1D1836844F8083C8260012010BD00F04CF808B500F0FDF9836883B393F82020472A04D00022826003F1200008BD93F8212061
:405C80004E2AF6D193F82220552AF2D193F82320432AEED193F82420432AEAD193F825202B2AE6D193F826202B2AE2D193F82720012ADED8DA69013ADA61002ADBD19969AC
:405CC000002281609A6103F1200008BD00F014F808B5804709F08AFE00F036F809F086FE0D46044600F076F8013501D0FFF728FF2046FFF7B7FE00BF08B5034B1868BFF305
:405D00005F8FFFF7E5FF00BF2881FF1F08B58047FFF7F2FF08B5034B1868BFF35F8FFFF7F5FF00BF2481FF1F024B1868BFF35F8F704700BF2881FF1F024B1868BFF35F8FFC
:405D4000704700BF2481FF1F38B5044600F088F9217803684729A4F1200205D0002B31D11C460260204638BD61784E29F6D1A1785529F3D1E1784329F0D121794329EDD13A
:405D800061792B29EAD1A1792B29E7D1E1790129E4D854F80C5C002D11DB01354168934201F1FF3144F80C5C41601CBF44F8103C02602046646A09F033F8204638BDC5F17E
:405DC0000105EBE7FFF798FF013101D0FFF7B8FEFFF748FE08B500F03FF90246006800283DD090F82030472B06D0002313602030BDE8084009F016B890F821304E2BF4D1B8
:405E000090F82230552BF0D190F82330432BECD190F82430432BE8D190F825302B2BE4D190F826302B2BE0D190F82730012BDCD84369002B05DB013B08D05A1C0DD04361F0
:405E400008BD0133FBD101691160F8E7036920301360BDE8084008F0E5BFFFF74DFF08BD704700BF0020704700207047814211D008B5406803782A2B0AD049680B782A2B84
:405E800008BF01310AF0EAFEB0FA80F0400908BD002008BD012070470AF004B8012810B51AD8BFF35F8FA1F1280353E8002F013A43E800200028F8D1BFF35F8F5AB951F852
:405EC0001C3C01F158040BB1204698472046BDE8104000F0A9B810BD51F8140CFFF7F8FEF8B504460F46164600F0BAF8436801252B44436044F8787C44F8746C44F8805C9C
:405F0000FFF71AFF44F8700CFFF70EFF134943222B234FF0470C4FF04E0EA4F158055527002644F86C0C04F858CC04F857EC44F8501C04F8552C04F8542C04F8533C04F88C
:405F4000523C04F8567C04F8516C284609F036FB2846FFF7F9FEFFF7CFFE00BF9D5E000010B500F07DF842680368013242606BB193F82020472A0BD00022026003F12004B9
:405F8000204609F03FFB2046FFF7DEFEFFF7B4FE93F821204E2AEFD193F82220552AEBD193F82320432AE7D193F82420432AE3D193F825202B2ADFD193F826202B2ADBD1D2
:405FC00093F82720012AD7D85A6952425A61D5E738B500F18005284609F05CFF044638B12046002180220AF041FB04F1800038BD0B4AB5F5007F116807D80B46D80706D525
:406000000134042C4FEA5303F8D1FFF775FE0123A34004481943116000EB4424E0E700BFC08CFF1FC88CFF1F094B984203D303F50062904202D3803809F034BF0549C01A94
:40604000400A0B680122824023EA02030B607047C88CFF1FC08CFF1F00487047C894FF1F00487047C894FF1F70B53D4B82B01A78002A36D101241C7000F080F800285CD06D
:406080004068002103784FF0FF322A2B14BF0446041902AB43F8042D20460A4608F076FC304D06462B683048DB680121302209F0B9FE019B7BB12B682046D96809F0E8FC4A
:4060C0002B682A48DB680121022209F0ABFE019B8BB1FFF745FF2B683046D96809F0D8FCEEE7204B01211B681D22DB68204809F099FE09F07BFC304609F0D4FEE9E701293D
:406100000C4627D1FFF720FE03689B6898472B6806462146DB6817480B2209F083FE2B683046D96809F0B4FC2B680A20D96809F075FCFFF74FFE09F059FC0A4B21461B68FA
:406140002D22DB680C4809F06DFEF4E7FFF742FEFFF7F6FCFFF7F8FDFFF73CFEEBE700BFD494FF1F5885FF1F987D0100CC7D0100787D0100007E0100D07D010008B5FFF7D9
:406180006FFF006830B190F82730012B04BF00687838006808BD00BF704700BF00487047707E010010B50446FFF776FE204610BD70B44C1E4A2C2CD8DFE804F03C3C3C3C93
:4061C0002B2B2B2B26263C2626262626262626262626262B27272727272727273C26262626262B26273D3C2B3C27273D2B2B26263C3C3C3C3C263C3C263C2B2B2626262BA2
:406200002B2B2626263C3C00CAB144698569AC4202DB002070BC704704EB440506690134AD00446174190CD071556260A360204670BC70471AB1002BE7D11846EAE710469C
:40624000E8E72046E6E700BF30B443698469A34209DA03EB430405690133A40043612B1901D001B112B930BC002070470020285559609A60184630BC704700BFF8B5C368BC
:40628000154604460E461A780F4616E0562A24D04B2A2FD1236B002D03F10603E160236314BF1E211B21002213462046FFF780FF3860F0B1E368071D1A78722A03F1010130
:4062C000E4D1226B002D03F1010302F10902E360226314BF1C211921E5E7226B002D03F1010302F10902E360226314BF1D211A21D9E7F8BDADB9462A13D1B74211D01D2051
:406300001E211C2207E01B2B0DD0192B00D132700436B74205D0366833781A2BF3D13070F6E73846F8BD3170F2E700BF10B4C3680A46197852290FD04F2903D010465DF8BC
:40634000044B7047046B2021033404630133C3605DF8044B00232BE7046B1F2102340463F4E700BFC2681378532B01D0002070472DE9F041531CC3605378EBB1931CC360C6
:4063800054785F2C26D10023026A934211D2826AC1690132826251F82300BDE8F0810121424B03F1C4051A78A2423CD01C33AB42F9D10020BDE8F0811C4683681B07EED43E
:4063C0000029EDD0C3681978433901298CBF00210121E5E7A4F13005EBB2092B60D800210DE0303B9942E4D8C2681478511C1CB1C16014785F2C14D01946A4F13005EDB244
:40640000A4F1410201EBC103092DD2B204EB8303E7D9192ACDD801EBC10204EB8203373BE0E70133B0E75A69002A34D044698569D3F818C0AC422CDA04EB4406D0F810E0C2
:40644000B60001341EEB0607446127D04FF018080EF806803E467A60C7F808C0C662A9B1DE681969026BA5420A440263A1DD04EB44020569631C92004361AB1899D0182024
:40648000A8545E6099601846BDE8F0815E689968E8E70026E2E785694469E0E73E46DDE7A4F14103192B9AD987E700BFD87E010070B505460E461446002A48D02378013B3B
:4064C0004A2B2AD8DFE803F03535353E2929262635353535353535353535353535353529353535353535353535352E2E353529353535353535353535292635353535353541
:406500003535353535352929352A2A2A2A29353535353500A468002CD0D170BD6468002CCCD1FAE762681378052B03D1336801333360626828463146FFF7BAFFA468002CEF
:40654000BCD1EAE72B6801332B606268F2E770BDD0F8003170B5FF2B04460D4606D05A1CC4F80021E55484F8045170BD00261946D0F80C21D0F8083180F8FF6098473346AC
:40658000D4F8201101221144C4F82011C4F80021E55484F8045170BD70B4036819786E291AD000252E46A1F13003092B88BF00230DD8026800230132026003EB830301EB61
:4065C00043031178303BA1F13004092CF3D983EA0600284470BC70475A1C0260597801254FF0FF36DFE700BF43698269934214DA03EB43020169920010B501338C18436146
:4066000008D040238B540C30FFF7C6FF23466060184610BD2346184610BD00231846704710B5C36804461A785F2A0BD06E2A06D00C30FFF7B1FFE3681A785F2A06D04FF02E
:40664000FF3010BD00200133E36010BD0130FAE738B5C36804461A78542A01D0002038BD0133C360FFF7DCFF051EF7DBA26A6369A16901328B42A262F0DA03EB43022169C6
:406680000133920063618B18E8D005248C545D60184638BD08B5C3681A785F2A01D0012008BD013340F80C3FFFF776FFC043C00F08BD00BF70B504460C30FFF76DFF061E79
:4066C00032DDE56863685B1B9E422FDCA268AB195207E36015D4092E0CDD28461449082209F0B8FE30B92B7A2E2B10D05F2B0ED0242B0CD0294632462046FFF7A5FDE0627A
:4067000070BDAA5D242A04BF0133E360E3E76B7A4E2BEFD1236B204616339E1B266305491522FFF791FDEAE7002070BD0020E6E7108601001C86010038B5044629B9C368A4
:406740001A7832B15A1CC2601978682912D0762901D0002038BD04F10C052846FFF71CFFE3681A785F2AF4D10133E3602846FFF713FF03E004F10C00FFF70EFFE3681A7822
:406780005F2AE6D10133E360012038BDD0F810310246C3B15A680B68906870B102782F2A0DD1002B04DC09E002782F2A07D143B18068013B0028F7D17047704701D0002042
:4067C00070474068704701211846C2F81811704738B505460C4691B323784A2B27D8DFE803F02E26262626302E2B2B2626262626262626262626262626262E262626262632
:406800002626262626262626262E2626262626262626262E2B2626262626262626262626262E262626262E262E26262E2E0028466168FFF7CDFF18B9A468002CCCD10020AE
:4068400038BD2846211DFFF7A1FF0028F7D003782F2BF4D138BD00BFF0B55368946801330B44A34283B015460E46074613D8EC680CB103B0F0BD95E809003246394618447C
:4068800009F01AFE2B686A6833449C546B681E446E6003B0F0BDD268002AEAD11CB9022B4FF0020402D96400A342FCD82868214609F05AFF10B12860AC60D8E701902868BC
:4068C00009F0F0FA019B01222B606B60AB60EA60CFE700BF2DE9F041044608460D460AF09BFA50B3D4F800112F184FF0000809E00B46BD4201F10101C4F80011E65484F8F7
:4069000004611AD0FF2915F8016BF1D1D4F8083184F8FF802046D4F80C219847D4F8203101210B44C4F82031BD424FF00003C4F80011E65484F80461E4D1BDE8F08100BF19
:406940002DE9F04188B00A4604461B4901A80AF05FF901A80AF060FA58B301ADD4F800112F184FF0000809E00B46BD4201F10101C4F80011E65484F804611AD0FF2915F84A
:40698000016BF1D1D4F8083184F8FF802046D4F80C219847D4F8203101210B44C4F82031BD424FF00003C4F80011E65484F80461E4D108B0BDE8F0813486010013782DE9C8
:4069C000F047033B1546044688462A2B00F2B981DFE813F05100B701B701B701B701B701B701B701B701B701B701B701B701B701B701B701B701B701B701B701B701B701FB
:406A000055007B00A10055007B00A100C600DE00160128012E01310134015901B701B701B701B7017E01B7012B00DD4ED0F8001106F10A0A4FF0000909E00B460131564500
:406A4000C4F80011E75484F8047100F08681FF2916F8017BF1D1D4F8083184F8FF902046D4F80C219847D4F8203101210B44C4F820310023E3E76A68BDE8F04714E2C94D22
:406A8000D0F8001105F109074FF0000809E00B460131BD42C4F80011E65484F8046100F06E81FF2915F8016FF1D1D4F8083184F8FF802046D4F80C219847D4F8203101219A
:406AC0000B44C4F820310023E3E7B74DD0F8001105F109074FF0000809E00B460131BD42C4F80011E65484F8046100F04A81FF2915F8016FF1D1D4F8083184F8FF80204648
:406B0000D4F80C219847D4F8203101210B44C4F820310023E3E7A54DD0F80011AF1D4FF0000809E00B460131BD42C4F80011E65484F8046100F00981FF2915F8016BF1D1E7
:406B4000D4F8083184F8FF802046D4F80C219847D4F8203101210B44C4F820310023E3E7D0F80031FF2B00F04C81591C2022C4F80011E25484F80421FF2900F021814A1CF4
:406B80002623C4F80021635484F80431BDE8F087D0F80031FF2B00F05681591C2022C4F80011E25484F80421814D4FF00008AF1C09E00B46BD4201F10101C4F80011E654D2
:406BC00084F804611AD0FF2915F8016BF1D1D4F8083184F8FF802046D4F80C219847D4F8203101210B44C4F82031BD424FF00003C4F80011E65484F80461E4D1BDE8F08794
:406C0000D0F80011FF2900F0EC804A1C2023C4F80021635484F804314146AA682046BDE8F04741E111F0040800F0AD80BDE8F087D0F80011A0E7D0F80011B5E75D4DD0F87F
:406C4000001105F108074FF0000808E00B460131BD42C4F80011E65484F8046177D0FF2915F8016FF2D1D4F8083184F8FF802046D4F80C219847D4F8203101210B44C4F82E
:406C800020310023E4E74C4DD0F8001105F10A074FF0000808E00B460131BD42C4F80011E65484F8046156D0FF2915F8016BF2D1D4F8083184F8FF802046D4F80C219847BB
:406CC000D4F8203101210B44C4F820310023E4E790F80431282B0BD0D0F80011FF2900F0C3804A1C2023C4F80021635484F804316A68324D4146204600F0D6F8EF1CD4F82B
:406D000000114FF0000808E00B460131BD42C4F80011E65484F804611BD0FF2915F8016BF2D1D4F8083184F8FF802046D4F80C219847D4F8203101210B44C4F8203100235E
:406D4000E4E72A46BDE8F047AEE0BDE8F087BDE8F087BDE8F087BDE8F08741466A68204600F0A2F8D4F80011FF295BD04A1C2923C4F80021635484F80431BDE8F087BDE8CD
:406D8000F087BDE8F087D0F80011FF297CD04A1C2A23C4F80021635484F80431BDE8F08778860100378601004386010050860100588601005B8601006886010074860100D6
:406DC0000025D4F80831D4F80C2184F8FF5020469847D4F82031012213442946C4F82031CEE60026D0F80831D4F80C2180F8FF609847D4F82031012213443146C4F82031A8
:406E000004E700251946D4F80C21D0F8083180F8FF509847D4F8202101210A442B46C4F82021A3E60025D4F80831D4F80C2184F8FF5020469847D4F8203101221344294696
:406E4000C4F8203193E700251946D4F80C21D0F8083180F8FF509847D4F8202101210A442B46C4F8202199E60026D0F80831D4F80C2180F8FF609847D4F820310122134490
:406E80003146C4F820312DE7D0F80831D4F80C2180F8FF809847D4F82031012213444146C4F8203174E700BF2DE9F04F044695B01546002A00F09D80D0F81831002B40F043
:406EC000908013780E464B2B01F20880DFE813F022060C060C064E06D805C0057C0577056D056305590546053C05320528051E051405410737072D072307FC07D607FC067F
:406F0000D306BC07BC07BC07AA07AA07AA07AA07AA07AA07AA0778077807AA07AA074B070F05FA048D04710459037104310331039C030703E002B902B502A3020004EB03C1
:406F4000B303AF03AF034C004C004A049A028D022002F901D201AB01840106085E0166023701EB00C10097006A681178272941F07B815268177C5FB1062F41F27F84072FA0
:406F800006D1AA68117819B99168012901F05A86D4F80011FF2901F057844A1C2823C4F80021635484F8043131466A682046FFF77BFFD4F80011FF2901F033844A1C292354
:406FC000C4F80021635484F804312B783C2B01F00585082F204601F0F3843146AA68FFF763FF15B0BDE8F08FB8F1000F01D0C4F810710123C4F8183115B0BDE8F08FCD4F04
:407000006A68FFF751FF07F1080AD4F800114FF000090AE00B4601315745C4F8001104F8038084F8048100F09587FF2917F8018FF0D1D4F8083184F8FF902046D4F80C21B0
:407040009847D4F8203101210B44C4F820310023E2E7B94F6A68FFF727FF07F1050AD4F800114FF000090AE00B4601315745C4F8001104F8038084F8048100F0D187FF29C2
:4070800017F8018BF0D1D4F8083184F8FF902046D4F80C219847D4F8203101210B44C4F820310023E2E76968FFF792FB4FF00008002801F0A08503782F2B41F0CD804368C8
:4070C000002B01F0C980806808F101080028F2D16B6800930027B94608F1FF33DFF878A20193C4F81C7120463146009AFFF7DCFE019B9F4280F21D87D4F80011DFF85CB235
:4071000009E00B460131D345C4F80011E55484F8045100F00E87FF291BF8015BF1D1D4F8083184F8FF902046D4F80C219847D4F8203101210B44C4F820310023E3E77F4F72
:40714000D0F8001107F11A0A4FF000090AE00B4601315745C4F8001104F8038084F8048100F06987FF2917F8018FF0D1D4F8083184F8FF902046D4F80C219847D4F82031A9
:4071800001210B44C4F820310023E2E76C4ED0F8001106F10E094FF0000809E00B4601314E45C4F80011E75484F8047100F09B87FF2916F8017FF1D1D4F8083184F8FF80FB
:4071C0002046D4F80C219847D4F8203101210B44C4F820310023E3E75A4FD0F8001107F1080A4FF000090AE00B4601315745C4F8001104F8038084F8048100F0B087FF2950
:4072000017F8018FF0D1D4F8083184F8FF902046D4F80C219847D4F8203101210B44C4F820310023E2E7484FD0F8001107F11C0A4FF000090AE00B4601315745C4F800116D
